{
  "address": "0xc351628EB244ec633d5f21fBD6621e1a683B1181",
  "abi": [
    {
      "inputs": [
        {
          "internalType": "uint256[]",
          "name": "percentage",
          "type": "uint256[]"
        },
        {
          "internalType": "address[]",
          "name": "tokenAddress",
          "type": "address[]"
        },
        {
          "internalType": "string[]",
          "name": "protocol",
          "type": "string[]"
        }
      ],
      "name": "swapForPercentageV2",
      "outputs": [],
      "stateMutability": "payable",
      "type": "function"
    },
    {
      "inputs": [],
      "name": "uniswapRouterV3",
      "outputs": [
        {
          "internalType": "contract ISwapRouter",
          "name": "",
          "type": "address"
        }
      ],
      "stateMutability": "view",
      "type": "function"
    }
  ],
  "transactionHash": "0xac24b0a5f839201b6fc730c68d0d6dc3a4941a4124f7cb68d770b948ef73c8e8",
  "args": [],
  "solcInputHash": "b8181a949ccb07389df3e03c52fc2105",
  "bytecode": "0x608060405234801561001057600080fd5b50610fb7806100206000396000f3fe6080604052600436106100295760003560e01c806310f91b0b1461002e578063d2926ff214610059575b600080fd5b34801561003a57600080fd5b50610043610075565b6040516100509190610a9a565b60405180910390f35b610073600480360381019061006e919061084b565b61008d565b005b73e592427a0aece92de3edee1f18e0157c0586156481565b60006040518060400160405280600a81526020017f556e69737761705f56330000000000000000000000000000000000000000000081525090506000341161010a576040517f08c379a000000000000000000000000000000000000000000000000000000000815260040161010190610ad5565b60405180910390fd5b6064846000815181106101205761011f610e79565b5b60200260200101511115610169576040517f08c379a000000000000000000000000000000000000000000000000000000000815260040161016090610ab5565b60405180910390fd5b6000349050600060405180610100016040528073c02aaa39b223fe8d0a0e5c4f27ead9083c756cc273ffffffffffffffffffffffffffffffffffffffff168152602001866000815181106101c0576101bf610e79565b5b602002602001015173ffffffffffffffffffffffffffffffffffffffff168152602001610bb862ffffff1681526020013373ffffffffffffffffffffffffffffffffffffffff168152602001600f426102199190610c12565b815260200160648860008151811061023457610233610e79565b5b6020026020010151856102479190610c99565b6102519190610c68565b815260200160008152602001600073ffffffffffffffffffffffffffffffffffffffff168152509050600060405180610100016040528073c02aaa39b223fe8d0a0e5c4f27ead9083c756cc273ffffffffffffffffffffffffffffffffffffffff168152602001876001815181106102cc576102cb610e79565b5b602002602001015173ffffffffffffffffffffffffffffffffffffffff168152602001610bb862ffffff1681526020013373ffffffffffffffffffffffffffffffffffffffff168152602001600f426103259190610c12565b81526020016064896000815181106103405761033f610e79565b5b602002602001015160646103549190610cf3565b8661035f9190610c99565b6103699190610c68565b815260200160008152602001600073ffffffffffffffffffffffffffffffffffffffff168152509050836040516020016103a39190610a83565b60405160208183030381529060405280519060200120856000815181106103cd576103cc610e79565b5b60200260200101516040516020016103e59190610a83565b60405160208183030381529060405280519060200120141561043e5761043d60648860008151811061041a57610419610e79565b5b60200260200101518561042d9190610c99565b6104379190610c68565b836104ff565b5b8360405160200161044f9190610a83565b604051602081830303815290604052805190602001208560018151811061047957610478610e79565b5b60200260200101516040516020016104919190610a83565b6040516020818303038152906040528051906020012014156104f6576104f56064886000815181106104c6576104c5610e79565b5b602002602001015160646104da9190610cf3565b856104e59190610c99565b6104ef9190610c68565b826104ff565b5b50505050505050565b73e592427a0aece92de3edee1f18e0157c0586156473ffffffffffffffffffffffffffffffffffffffff1663414bf38983836040518363ffffffff1660e01b815260040161054d9190610af5565b6020604051808303818588803b15801561056657600080fd5b505af115801561057a573d6000803e3d6000fd5b50505050506040513d601f19601f8201168201806040525081019061059f91906108f2565b505050565b60006105b76105b284610b36565b610b11565b905080838252602082019050828560208602820111156105da576105d9610edc565b5b60005b8581101561060a57816105f08882610754565b8452602084019350602083019250506001810190506105dd565b5050509392505050565b600061062761062284610b62565b610b11565b9050808382526020820190508285602086028201111561064a57610649610edc565b5b60005b8581101561069857813567ffffffffffffffff8111156106705761066f610ed7565b5b80860161067d89826107f3565b8552602085019450602084019350505060018101905061064d565b5050509392505050565b60006106b56106b084610b8e565b610b11565b905080838252602082019050828560208602820111156106d8576106d7610edc565b5b60005b8581101561070857816106ee8882610821565b8452602084019350602083019250506001810190506106db565b5050509392505050565b600061072561072084610bba565b610b11565b90508281526020810184848401111561074157610740610ee1565b5b61074c848285610da8565b509392505050565b60008135905061076381610f53565b92915050565b600082601f83011261077e5761077d610ed7565b5b813561078e8482602086016105a4565b91505092915050565b600082601f8301126107ac576107ab610ed7565b5b81356107bc848260208601610614565b91505092915050565b600082601f8301126107da576107d9610ed7565b5b81356107ea8482602086016106a2565b91505092915050565b600082601f83011261080857610807610ed7565b5b8135610818848260208601610712565b91505092915050565b60008135905061083081610f6a565b92915050565b60008151905061084581610f6a565b92915050565b60008060006060848603121561086457610863610eeb565b5b600084013567ffffffffffffffff81111561088257610881610ee6565b5b61088e868287016107c5565b935050602084013567ffffffffffffffff8111156108af576108ae610ee6565b5b6108bb86828701610769565b925050604084013567ffffffffffffffff8111156108dc576108db610ee6565b5b6108e886828701610797565b9150509250925092565b60006020828403121561090857610907610eeb565b5b600061091684828501610836565b91505092915050565b61092881610d27565b82525050565b61093781610d72565b82525050565b600061094882610beb565b6109528185610c07565b9350610962818560208601610db7565b80840191505092915050565b600061097b601483610bf6565b915061098682610f01565b602082019050919050565b600061099e601a83610bf6565b91506109a982610f2a565b602082019050919050565b610100820160008201516109cb600085018261091f565b5060208201516109de602085018261091f565b5060408201516109f16040850182610a65565b506060820151610a04606085018261091f565b506080820151610a176080850182610a74565b5060a0820151610a2a60a0850182610a74565b5060c0820151610a3d60c0850182610a74565b5060e0820151610a5060e0850182610a56565b50505050565b610a5f81610d39565b82525050565b610a6e81610d59565b82525050565b610a7d81610d68565b82525050565b6000610a8f828461093d565b915081905092915050565b6000602082019050610aaf600083018461092e565b92915050565b60006020820190508181036000830152610ace8161096e565b9050919050565b60006020820190508181036000830152610aee81610991565b9050919050565b600061010082019050610b0b60008301846109b4565b92915050565b6000610b1b610b2c565b9050610b278282610dea565b919050565b6000604051905090565b600067ffffffffffffffff821115610b5157610b50610ea8565b5b602082029050602081019050919050565b600067ffffffffffffffff821115610b7d57610b7c610ea8565b5b602082029050602081019050919050565b600067ffffffffffffffff821115610ba957610ba8610ea8565b5b602082029050602081019050919050565b600067ffffffffffffffff821115610bd557610bd4610ea8565b5b610bde82610ef0565b9050602081019050919050565b600081519050919050565b600082825260208201905092915050565b600081905092915050565b6000610c1d82610d68565b9150610c2883610d68565b9250827fffffffffffffffffffffffffffffffffffffffffffffffffffffffffffffffff03821115610c5d57610c5c610e1b565b5b828201905092915050565b6000610c7382610d68565b9150610c7e83610d68565b925082610c8e57610c8d610e4a565b5b828204905092915050565b6000610ca482610d68565b9150610caf83610d68565b9250817fffffffffffffffffffffffffffffffffffffffffffffffffffffffffffffffff0483118215151615610ce857610ce7610e1b565b5b828202905092915050565b6000610cfe82610d68565b9150610d0983610d68565b925082821015610d1c57610d1b610e1b565b5b828203905092915050565b6000610d3282610d39565b9050919050565b600073ffffffffffffffffffffffffffffffffffffffff82169050919050565b600062ffffff82169050919050565b6000819050919050565b6000610d7d82610d84565b9050919050565b6000610d8f82610d96565b9050919050565b6000610da182610d39565b9050919050565b82818337600083830152505050565b60005b83811015610dd5578082015181840152602081019050610dba565b83811115610de4576000848401525b50505050565b610df382610ef0565b810181811067ffffffffffffffff82111715610e1257610e11610ea8565b5b80604052505050565b7f4e487b7100000000000000000000000000000000000000000000000000000000600052601160045260246000fd5b7f4e487b7100000000000000000000000000000000000000000000000000000000600052601260045260246000fd5b7f4e487b7100000000000000000000000000000000000000000000000000000000600052603260045260246000fd5b7f4e487b7100000000000000000000000000000000000000000000000000000000600052604160045260246000fd5b600080fd5b600080fd5b600080fd5b600080fd5b600080fd5b6000601f19601f8301169050919050565b7f4d7573742062652030206f722067726561746572000000000000000000000000600082015250565b7f4d7573742070617373206e6f6e20302045544820616d6f756e74000000000000600082015250565b610f5c81610d27565b8114610f6757600080fd5b50565b610f7381610d68565b8114610f7e57600080fd5b5056fea2646970667358221220971e8f68186fefbe9a8b48fb35f6e219a8587ce2445dbeb9798ae83092f1dbb664736f6c63430008070033",
  "devdoc": {
    "kind": "dev",
    "methods": {},
    "version": 1
  },
  "userdoc": {
    "kind": "user",
    "methods": {},
    "version": 1
  },
  "storageLayout": {
    "storage": [],
    "types": null
  }
}