{
  "address": "0x7bc06c482DEAd17c0e297aFbC32f6e63d3846650",
  "abi": [
    {
      "anonymous": false,
      "inputs": [
        {
          "indexed": true,
          "internalType": "address",
          "name": "user",
          "type": "address"
        },
        {
          "indexed": true,
          "internalType": "uint256",
          "name": "pid",
          "type": "uint256"
        },
        {
          "indexed": false,
          "internalType": "uint256",
          "name": "amount",
          "type": "uint256"
        }
      ],
      "name": "Deposit",
      "type": "event"
    },
    {
      "anonymous": false,
      "inputs": [
        {
          "indexed": true,
          "internalType": "address",
          "name": "user",
          "type": "address"
        },
        {
          "indexed": true,
          "internalType": "uint256",
          "name": "pid",
          "type": "uint256"
        },
        {
          "indexed": false,
          "internalType": "uint256",
          "name": "amount",
          "type": "uint256"
        }
      ],
      "name": "EmergencyWithdraw",
      "type": "event"
    },
    {
      "anonymous": false,
      "inputs": [
        {
          "indexed": true,
          "internalType": "address",
          "name": "previousOwner",
          "type": "address"
        },
        {
          "indexed": true,
          "internalType": "address",
          "name": "newOwner",
          "type": "address"
        }
      ],
      "name": "OwnershipTransferred",
      "type": "event"
    },
    {
      "anonymous": false,
      "inputs": [
        {
          "indexed": true,
          "internalType": "address",
          "name": "user",
          "type": "address"
        },
        {
          "indexed": true,
          "internalType": "uint256",
          "name": "pid",
          "type": "uint256"
        },
        {
          "indexed": false,
          "internalType": "uint256",
          "name": "amount",
          "type": "uint256"
        },
        {
          "indexed": false,
          "internalType": "uint256",
          "name": "pending",
          "type": "uint256"
        }
      ],
      "name": "Withdraw",
      "type": "event"
    },
    {
      "anonymous": false,
      "inputs": [
        {
          "indexed": false,
          "internalType": "uint256",
          "name": "LPtokens",
          "type": "uint256"
        }
      ],
      "name": "addLiquidityInfo",
      "type": "event"
    },
    {
      "inputs": [],
      "name": "BONUS_MULTIPLIER",
      "outputs": [
        {
          "internalType": "uint256",
          "name": "",
          "type": "uint256"
        }
      ],
      "stateMutability": "view",
      "type": "function"
    },
    {
      "inputs": [
        {
          "internalType": "uint256",
          "name": "_allocPoint",
          "type": "uint256"
        },
        {
          "internalType": "contract IERC20Upgradeable",
          "name": "_lpToken",
          "type": "address"
        },
        {
          "internalType": "bool",
          "name": "_withUpdate",
          "type": "bool"
        }
      ],
      "name": "add",
      "outputs": [],
      "stateMutability": "nonpayable",
      "type": "function"
    },
    {
      "inputs": [
        {
          "internalType": "address",
          "name": "_tokenA",
          "type": "address"
        },
        {
          "internalType": "address",
          "name": "_tokenB",
          "type": "address"
        },
        {
          "internalType": "uint256",
          "name": "_amountA",
          "type": "uint256"
        },
        {
          "internalType": "uint256",
          "name": "_amountB",
          "type": "uint256"
        }
      ],
      "name": "addAndStake",
      "outputs": [],
      "stateMutability": "payable",
      "type": "function"
    },
    {
      "inputs": [],
      "name": "bonusEndBlock",
      "outputs": [
        {
          "internalType": "uint256",
          "name": "",
          "type": "uint256"
        }
      ],
      "stateMutability": "view",
      "type": "function"
    },
    {
      "inputs": [
        {
          "internalType": "uint256",
          "name": "_pid",
          "type": "uint256"
        },
        {
          "internalType": "uint256",
          "name": "_amount",
          "type": "uint256"
        },
        {
          "internalType": "bool",
          "name": "transfer",
          "type": "bool"
        }
      ],
      "name": "deposit",
      "outputs": [],
      "stateMutability": "nonpayable",
      "type": "function"
    },
    {
      "inputs": [
        {
          "internalType": "uint256",
          "name": "_pid",
          "type": "uint256"
        },
        {
          "internalType": "uint256",
          "name": "_amount",
          "type": "uint256"
        },
        {
          "internalType": "uint256",
          "name": "_deadline",
          "type": "uint256"
        },
        {
          "internalType": "uint8",
          "name": "_v",
          "type": "uint8"
        },
        {
          "internalType": "bytes32",
          "name": "_r",
          "type": "bytes32"
        },
        {
          "internalType": "bytes32",
          "name": "_s",
          "type": "bytes32"
        },
        {
          "internalType": "bool",
          "name": "transfer",
          "type": "bool"
        }
      ],
      "name": "depositWithPermit",
      "outputs": [],
      "stateMutability": "nonpayable",
      "type": "function"
    },
    {
      "inputs": [
        {
          "internalType": "address",
          "name": "_devaddr",
          "type": "address"
        }
      ],
      "name": "dev",
      "outputs": [],
      "stateMutability": "nonpayable",
      "type": "function"
    },
    {
      "inputs": [],
      "name": "devaddr",
      "outputs": [
        {
          "internalType": "address",
          "name": "",
          "type": "address"
        }
      ],
      "stateMutability": "view",
      "type": "function"
    },
    {
      "inputs": [
        {
          "internalType": "uint256",
          "name": "_pid",
          "type": "uint256"
        }
      ],
      "name": "emergencyWithdraw",
      "outputs": [],
      "stateMutability": "nonpayable",
      "type": "function"
    },
    {
      "inputs": [
        {
          "internalType": "address",
          "name": "_tokenA",
          "type": "address"
        },
        {
          "internalType": "address",
          "name": "_tokenB",
          "type": "address"
        },
        {
          "internalType": "uint256",
          "name": "_amountA",
          "type": "uint256"
        },
        {
          "internalType": "uint256",
          "name": "_amountB",
          "type": "uint256"
        }
      ],
      "name": "getAmountOfTokens",
      "outputs": [
        {
          "internalType": "uint256",
          "name": "amountAOptimal",
          "type": "uint256"
        },
        {
          "internalType": "uint256",
          "name": "amountBOptimal",
          "type": "uint256"
        }
      ],
      "stateMutability": "view",
      "type": "function"
    },
    {
      "inputs": [
        {
          "internalType": "uint256",
          "name": "_from",
          "type": "uint256"
        },
        {
          "internalType": "uint256",
          "name": "_to",
          "type": "uint256"
        }
      ],
      "name": "getMultiplier",
      "outputs": [
        {
          "internalType": "uint256",
          "name": "",
          "type": "uint256"
        }
      ],
      "stateMutability": "view",
      "type": "function"
    },
    {
      "inputs": [
        {
          "internalType": "contract ArepaToken",
          "name": "_sushi",
          "type": "address"
        },
        {
          "internalType": "address",
          "name": "_devaddr",
          "type": "address"
        },
        {
          "internalType": "uint256",
          "name": "_sushiPerBlock",
          "type": "uint256"
        },
        {
          "internalType": "uint256",
          "name": "_startBlock",
          "type": "uint256"
        },
        {
          "internalType": "uint256",
          "name": "_bonusEndBlock",
          "type": "uint256"
        }
      ],
      "name": "initialize",
      "outputs": [],
      "stateMutability": "nonpayable",
      "type": "function"
    },
    {
      "inputs": [
        {
          "internalType": "address",
          "name": "_tokenA",
          "type": "address"
        },
        {
          "internalType": "address",
          "name": "_tokenB",
          "type": "address"
        },
        {
          "internalType": "uint256",
          "name": "_amountA",
          "type": "uint256"
        },
        {
          "internalType": "uint256",
          "name": "_amountB",
          "type": "uint256"
        }
      ],
      "name": "justAddLiquidity",
      "outputs": [],
      "stateMutability": "payable",
      "type": "function"
    },
    {
      "inputs": [],
      "name": "lpTokenPid0",
      "outputs": [
        {
          "internalType": "address",
          "name": "",
          "type": "address"
        }
      ],
      "stateMutability": "view",
      "type": "function"
    },
    {
      "inputs": [],
      "name": "massUpdatePools",
      "outputs": [],
      "stateMutability": "nonpayable",
      "type": "function"
    },
    {
      "inputs": [],
      "name": "owner",
      "outputs": [
        {
          "internalType": "address",
          "name": "",
          "type": "address"
        }
      ],
      "stateMutability": "view",
      "type": "function"
    },
    {
      "inputs": [
        {
          "internalType": "address",
          "name": "",
          "type": "address"
        }
      ],
      "name": "pairPid",
      "outputs": [
        {
          "internalType": "uint256",
          "name": "",
          "type": "uint256"
        }
      ],
      "stateMutability": "view",
      "type": "function"
    },
    {
      "inputs": [
        {
          "internalType": "uint256",
          "name": "_pid",
          "type": "uint256"
        },
        {
          "internalType": "address",
          "name": "_user",
          "type": "address"
        }
      ],
      "name": "pendingSushi",
      "outputs": [
        {
          "internalType": "uint256",
          "name": "",
          "type": "uint256"
        }
      ],
      "stateMutability": "view",
      "type": "function"
    },
    {
      "inputs": [
        {
          "internalType": "uint256",
          "name": "",
          "type": "uint256"
        }
      ],
      "name": "poolInfo",
      "outputs": [
        {
          "internalType": "contract IERC20Upgradeable",
          "name": "lpToken",
          "type": "address"
        },
        {
          "internalType": "uint256",
          "name": "allocPoint",
          "type": "uint256"
        },
        {
          "internalType": "uint256",
          "name": "lastRewardBlock",
          "type": "uint256"
        },
        {
          "internalType": "uint256",
          "name": "accSushiPerShare",
          "type": "uint256"
        }
      ],
      "stateMutability": "view",
      "type": "function"
    },
    {
      "inputs": [],
      "name": "poolLength",
      "outputs": [
        {
          "internalType": "uint256",
          "name": "",
          "type": "uint256"
        }
      ],
      "stateMutability": "view",
      "type": "function"
    },
    {
      "inputs": [],
      "name": "renounceOwnership",
      "outputs": [],
      "stateMutability": "nonpayable",
      "type": "function"
    },
    {
      "inputs": [
        {
          "internalType": "uint256",
          "name": "_pid",
          "type": "uint256"
        },
        {
          "internalType": "uint256",
          "name": "_allocPoint",
          "type": "uint256"
        },
        {
          "internalType": "bool",
          "name": "_withUpdate",
          "type": "bool"
        }
      ],
      "name": "set",
      "outputs": [],
      "stateMutability": "nonpayable",
      "type": "function"
    },
    {
      "inputs": [],
      "name": "startBlock",
      "outputs": [
        {
          "internalType": "uint256",
          "name": "",
          "type": "uint256"
        }
      ],
      "stateMutability": "view",
      "type": "function"
    },
    {
      "inputs": [],
      "name": "sushi",
      "outputs": [
        {
          "internalType": "contract ArepaToken",
          "name": "",
          "type": "address"
        }
      ],
      "stateMutability": "view",
      "type": "function"
    },
    {
      "inputs": [],
      "name": "sushiPerBlock",
      "outputs": [
        {
          "internalType": "uint256",
          "name": "",
          "type": "uint256"
        }
      ],
      "stateMutability": "view",
      "type": "function"
    },
    {
      "inputs": [],
      "name": "totalAllocPoint",
      "outputs": [
        {
          "internalType": "uint256",
          "name": "",
          "type": "uint256"
        }
      ],
      "stateMutability": "view",
      "type": "function"
    },
    {
      "inputs": [
        {
          "internalType": "address",
          "name": "newOwner",
          "type": "address"
        }
      ],
      "name": "transferOwnership",
      "outputs": [],
      "stateMutability": "nonpayable",
      "type": "function"
    },
    {
      "inputs": [],
      "name": "uniswapFactoryV2",
      "outputs": [
        {
          "internalType": "contract IUniswapV2Factory",
          "name": "",
          "type": "address"
        }
      ],
      "stateMutability": "view",
      "type": "function"
    },
    {
      "inputs": [],
      "name": "uniswapRouterV2",
      "outputs": [
        {
          "internalType": "contract IUniswapV2Router02",
          "name": "",
          "type": "address"
        }
      ],
      "stateMutability": "view",
      "type": "function"
    },
    {
      "inputs": [
        {
          "internalType": "uint256",
          "name": "_pid",
          "type": "uint256"
        }
      ],
      "name": "updatePool",
      "outputs": [],
      "stateMutability": "nonpayable",
      "type": "function"
    },
    {
      "inputs": [
        {
          "internalType": "uint256",
          "name": "",
          "type": "uint256"
        },
        {
          "internalType": "address",
          "name": "",
          "type": "address"
        }
      ],
      "name": "userInfo",
      "outputs": [
        {
          "internalType": "uint256",
          "name": "amount",
          "type": "uint256"
        },
        {
          "internalType": "uint256",
          "name": "rewardDebt",
          "type": "uint256"
        }
      ],
      "stateMutability": "view",
      "type": "function"
    },
    {
      "inputs": [
        {
          "internalType": "uint256",
          "name": "_pid",
          "type": "uint256"
        },
        {
          "internalType": "uint256",
          "name": "_amount",
          "type": "uint256"
        }
      ],
      "name": "withdraw",
      "outputs": [],
      "stateMutability": "nonpayable",
      "type": "function"
    },
    {
      "stateMutability": "payable",
      "type": "receive"
    }
  ],
  "transactionHash": "0xff52f41073ae45b67b1bc0f2c55f0acf46a38c8611438ca2f3a44a39089f727b",
  "args": [],
  "solcInputHash": "ee56797dc94a063a6865c99c0968c65a",
  "bytecode": "0x608060405234801561001057600080fd5b50614c28806100206000396000f3fe6080604052600436106101e75760003560e01c806364482f791161010257806393f1a40b11610095578063d49e77cd11610064578063d49e77cd146106cf578063e0b94162146106fa578063e13cfa6a14610716578063f2fde38b14610741576101ee565b806393f1a40b146105ff578063b0bcf42a1461063d578063c67ae58214610668578063d13f90b4146106a6576101ee565b80638bda1194116100d15780638bda1194146105455780638d88a90e1461056e5780638da5cb5b146105975780638dbb1e3a146105c2576101ee565b806364482f79146104af578063715018a6146104d85780638a064c3e146104ef5780638aa285501461051a576101ee565b80633d7946511161017a57806351eb05a61161014957806351eb05a61461041b5780635312ea8e14610444578063596fa9e31461046d578063630b5ba114610498576101ee565b80633d7946511461038257806343a0d0661461039e578063441a3e70146103c757806348cd4cb1146103f0576101ee565b806317caf6f1116101b657806317caf6f1146102c6578063195426ec146102f15780631aed65531461032e5780631eaaa04514610359576101ee565b8063081e3eda146101f35780630a0879031461021e5780630a0e0b51146102495780631526fe2714610286576101ee565b366101ee57005b600080fd5b3480156101ff57600080fd5b5061020861076a565b60405161021591906143e0565b60405180910390f35b34801561022a57600080fd5b50610233610777565b6040516102409190614138565b60405180910390f35b34801561025557600080fd5b50610270600480360381019061026b9190613823565b61079d565b60405161027d91906143e0565b60405180910390f35b34801561029257600080fd5b506102ad60048036038101906102a891906139df565b6107b5565b6040516102bd9493929190614153565b60405180910390f35b3480156102d257600080fd5b506102db610815565b6040516102e891906143e0565b60405180910390f35b3480156102fd57600080fd5b5061031860048036038101906103139190613a39565b61081b565b60405161032591906143e0565b60405180910390f35b34801561033a57600080fd5b50610343610a4f565b60405161035091906143e0565b60405180910390f35b34801561036557600080fd5b50610380600480360381019061037b9190613a79565b610a55565b005b61039c6004803603810190610397919061387d565b610be2565b005b3480156103aa57600080fd5b506103c560048036038101906103c09190613b0c565b61102d565b005b3480156103d357600080fd5b506103ee60048036038101906103e99190613acc565b61121c565b005b3480156103fc57600080fd5b5061040561143c565b60405161041291906143e0565b60405180910390f35b34801561042757600080fd5b50610442600480360381019061043d91906139df565b611442565b005b34801561045057600080fd5b5061046b600480360381019061046691906139df565b611680565b005b34801561047957600080fd5b506104826117b9565b60405161048f91906141b3565b60405180910390f35b3480156104a457600080fd5b506104ad6117d1565b005b3480156104bb57600080fd5b506104d660048036038101906104d19190613b0c565b611804565b005b3480156104e457600080fd5b506104ed611910565b005b3480156104fb57600080fd5b50610504611998565b6040516105119190614198565b60405180910390f35b34801561052657600080fd5b5061052f6119b0565b60405161053c91906143e0565b60405180910390f35b34801561055157600080fd5b5061056c60048036038101906105679190613bb2565b6119b5565b005b34801561057a57600080fd5b5061059560048036038101906105909190613823565b611c43565b005b3480156105a357600080fd5b506105ac611d17565b6040516105b99190613f46565b60405180910390f35b3480156105ce57600080fd5b506105e960048036038101906105e49190613acc565b611d41565b6040516105f691906143e0565b60405180910390f35b34801561060b57600080fd5b5061062660048036038101906106219190613a39565b611df3565b6040516106349291906143fb565b60405180910390f35b34801561064957600080fd5b50610652611e24565b60405161065f91906143e0565b60405180910390f35b34801561067457600080fd5b5061068f600480360381019061068a919061387d565b611e2a565b60405161069d9291906143fb565b60405180910390f35b3480156106b257600080fd5b506106cd60048036038101906106c89190613911565b611f34565b005b3480156106db57600080fd5b506106e46120b9565b6040516106f19190613f46565b60405180910390f35b610714600480360381019061070f919061387d565b6120df565b005b34801561072257600080fd5b5061072b61271a565b6040516107389190613f46565b60405180910390f35b34801561074d57600080fd5b5061076860048036038101906107639190613823565b612740565b005b6000606980549050905090565b606560009054906101000a900473ffffffffffffffffffffffffffffffffffffffff1681565b606a6020528060005260406000206000915090505481565b606981815481106107c557600080fd5b90600052602060002090600402016000915090508060000160009054906101000a900473ffffffffffffffffffffffffffffffffffffffff16908060010154908060020154908060030154905084565b606c5481565b6000806069848154811061083257610831614770565b5b906000526020600020906004020190506000606b600086815260200190815260200160002060008573ffffffffffffffffffffffffffffffffffffffff1673ffffffffffffffffffffffffffffffffffffffff168152602001908152602001600020905060008260030154905060008360000160009054906101000a900473ffffffffffffffffffffffffffffffffffffffff1673ffffffffffffffffffffffffffffffffffffffff166370a08231306040518263ffffffff1660e01b81526004016108fe9190613f46565b60206040518083038186803b15801561091657600080fd5b505afa15801561092a573d6000803e3d6000fd5b505050506040513d601f19601f8201168201806040525081019061094e9190613a0c565b9050836002015443118015610964575060008114155b156109ff576000610979856002015443611d41565b905060006109bc606c546109ae88600101546109a06068548761283890919063ffffffff16565b61283890919063ffffffff16565b61284e90919063ffffffff16565b90506109fa6109eb846109dd64e8d4a510008561283890919063ffffffff16565b61284e90919063ffffffff16565b8561286490919063ffffffff16565b935050505b610a438360010154610a3564e8d4a51000610a2786886000015461283890919063ffffffff16565b61284e90919063ffffffff16565b61287a90919063ffffffff16565b94505050505092915050565b60675481565b610a5d612890565b73ffffffffffffffffffffffffffffffffffffffff16610a7b611d17565b73ffffffffffffffffffffffffffffffffffffffff1614610ad1576040517f08c379a0000000000000000000000000000000000000000000000000000000008152600401610ac890614300565b60405180910390fd5b8015610ae057610adf6117d1565b5b6000606d544311610af357606d54610af5565b435b9050610b0c84606c5461286490919063ffffffff16565b606c81905550606960405180608001604052808573ffffffffffffffffffffffffffffffffffffffff1681526020018681526020018381526020016000815250908060018154018082558091505060019003906000526020600020906004020160009091909190915060008201518160000160006101000a81548173ffffffffffffffffffffffffffffffffffffffff021916908373ffffffffffffffffffffffffffffffffffffffff160217905550602082015181600101556040820151816002015560608201518160030155505050505050565b6000806000341115610e4b5773c02aaa39b223fe8d0a0e5c4f27ead9083c756cc273ffffffffffffffffffffffffffffffffffffffff168673ffffffffffffffffffffffffffffffffffffffff161415610c3d578491508290505b73c02aaa39b223fe8d0a0e5c4f27ead9083c756cc273ffffffffffffffffffffffffffffffffffffffff168573ffffffffffffffffffffffffffffffffffffffff161415610c8c578591508390505b6000610cae73c02aaa39b223fe8d0a0e5c4f27ead9083c756cc2843485611e2a565b915050610cde3330838673ffffffffffffffffffffffffffffffffffffffff16612898909392919063ffffffff16565b610d1d737a250d5630b4cf539739df2c5dacb4c659f2488d828573ffffffffffffffffffffffffffffffffffffffff166129219092919063ffffffff16565b6000737a250d5630b4cf539739df2c5dacb4c659f2488d73ffffffffffffffffffffffffffffffffffffffff1663f305d71934868560018033426040518863ffffffff1660e01b8152600401610d78969594939291906140d7565b6060604051808303818588803b158015610d9157600080fd5b505af1158015610da5573d6000803e3d6000fd5b50505050506040513d601f19601f82011682018060405250810190610dca9190613b5f565b92505050610e0d6040518060400160405280601a81526020017f746f6b656e206a75737420616464206c69717569646974793a2000000000000081525082612a7f565b7f3a5c06c68e5d86027b6f09ef411e742764fe6d7ef5a0f9803cfbd4be9cdbf65281604051610e3c91906143e0565b60405180910390a15050611025565b600080610e5a88888888611e2a565b91509150610e8b3330848b73ffffffffffffffffffffffffffffffffffffffff16612898909392919063ffffffff16565b610eb83330838a73ffffffffffffffffffffffffffffffffffffffff16612898909392919063ffffffff16565b610ef7737a250d5630b4cf539739df2c5dacb4c659f2488d838a73ffffffffffffffffffffffffffffffffffffffff166129219092919063ffffffff16565b610f36737a250d5630b4cf539739df2c5dacb4c659f2488d828973ffffffffffffffffffffffffffffffffffffffff166129219092919063ffffffff16565b6000737a250d5630b4cf539739df2c5dacb4c659f2488d73ffffffffffffffffffffffffffffffffffffffff1663e8e337008a8a868660018033426040518963ffffffff1660e01b8152600401610f94989796959493929190613fc1565b606060405180830381600087803b158015610fae57600080fd5b505af1158015610fc2573d6000803e3d6000fd5b505050506040513d601f19601f82011682018060405250810190610fe69190613b5f565b925050507f3a5c06c68e5d86027b6f09ef411e742764fe6d7ef5a0f9803cfbd4be9cdbf6528160405161101991906143e0565b60405180910390a15050505b505050505050565b60006069848154811061104357611042614770565b5b906000526020600020906004020190506000606b600086815260200190815260200160002060003373ffffffffffffffffffffffffffffffffffffffff1673ffffffffffffffffffffffffffffffffffffffff16815260200190815260200160002090506110b085611442565b60008160000154111561111557600061110782600101546110f964e8d4a510006110eb8760030154876000015461283890919063ffffffff16565b61284e90919063ffffffff16565b61287a90919063ffffffff16565b90506111133382612b1b565b505b821561116d5761116c3330868560000160009054906101000a900473ffffffffffffffffffffffffffffffffffffffff1673ffffffffffffffffffffffffffffffffffffffff16612898909392919063ffffffff16565b5b61118484826000015461286490919063ffffffff16565b81600001819055506111be64e8d4a510006111b08460030154846000015461283890919063ffffffff16565b61284e90919063ffffffff16565b8160010181905550843373ffffffffffffffffffffffffffffffffffffffff167f90890809c654f11d6e72a28fa60149770a0d11ec6c92319d6ceb2bb0a4ea1a158660405161120d91906143e0565b60405180910390a35050505050565b60006069838154811061123257611231614770565b5b906000526020600020906004020190506000606b600085815260200190815260200160002060003373ffffffffffffffffffffffffffffffffffffffff1673ffffffffffffffffffffffffffffffffffffffff168152602001908152602001600020905082816000015410156112dd576040517f08c379a00000000000000000000000000000000000000000000000000000000081526004016112d490614360565b60405180910390fd5b6112e684611442565b6000611330826001015461132264e8d4a510006113148760030154876000015461283890919063ffffffff16565b61284e90919063ffffffff16565b61287a90919063ffffffff16565b905061133c3382612b1b565b61135384836000015461287a90919063ffffffff16565b826000018190555061138d64e8d4a5100061137f8560030154856000015461283890919063ffffffff16565b61284e90919063ffffffff16565b82600101819055506113e433858560000160009054906101000a900473ffffffffffffffffffffffffffffffffffffffff1673ffffffffffffffffffffffffffffffffffffffff16612d3d9092919063ffffffff16565b843373ffffffffffffffffffffffffffffffffffffffff167f02f25270a4d87bea75db541cdfe559334a275b4a233520ed6c0a2429667cca94868460405161142d9291906143fb565b60405180910390a35050505050565b606d5481565b60006069828154811061145857611457614770565b5b9060005260206000209060040201905080600201544311611479575061167d565b60008160000160009054906101000a900473ffffffffffffffffffffffffffffffffffffffff1673ffffffffffffffffffffffffffffffffffffffff166370a08231306040518263ffffffff1660e01b81526004016114d89190613f46565b60206040518083038186803b1580156114f057600080fd5b505afa158015611504573d6000803e3d6000fd5b505050506040513d601f19601f820116820180604052508101906115289190613a0c565b9050600081141561154357438260020181905550505061167d565b6000611553836002015443611d41565b90506000611596606c54611588866001015461157a6068548761283890919063ffffffff16565b61283890919063ffffffff16565b61284e90919063ffffffff16565b9050606560009054906101000a900473ffffffffffffffffffffffffffffffffffffffff1673ffffffffffffffffffffffffffffffffffffffff166340c10f1930836040518363ffffffff1660e01b81526004016115f59291906140ae565b600060405180830381600087803b15801561160f57600080fd5b505af1158015611623573d6000803e3d6000fd5b505050506116676116548461164664e8d4a510008561283890919063ffffffff16565b61284e90919063ffffffff16565b856003015461286490919063ffffffff16565b8460030181905550438460020181905550505050505b50565b60006069828154811061169657611695614770565b5b906000526020600020906004020190506000606b600084815260200190815260200160002060003373ffffffffffffffffffffffffffffffffffffffff1673ffffffffffffffffffffffffffffffffffffffff168152602001908152602001600020905061174d3382600001548460000160009054906101000a900473ffffffffffffffffffffffffffffffffffffffff1673ffffffffffffffffffffffffffffffffffffffff16612d3d9092919063ffffffff16565b823373ffffffffffffffffffffffffffffffffffffffff167fbb757047c2b5f3974fe26b7c10f732e7bce710b0952a71082702781e62ae0595836000015460405161179891906143e0565b60405180910390a36000816000018190555060008160010181905550505050565b737a250d5630b4cf539739df2c5dacb4c659f2488d81565b6000606980549050905060005b81811015611800576117ef81611442565b806117f9906146c9565b90506117de565b5050565b61180c612890565b73ffffffffffffffffffffffffffffffffffffffff1661182a611d17565b73ffffffffffffffffffffffffffffffffffffffff1614611880576040517f08c379a000000000000000000000000000000000000000000000000000000000815260040161187790614300565b60405180910390fd5b801561188f5761188e6117d1565b5b6118db826118cd606986815481106118aa576118a9614770565b5b906000526020600020906004020160010154606c5461287a90919063ffffffff16565b61286490919063ffffffff16565b606c8190555081606984815481106118f6576118f5614770565b5b906000526020600020906004020160010181905550505050565b611918612890565b73ffffffffffffffffffffffffffffffffffffffff16611936611d17565b73ffffffffffffffffffffffffffffffffffffffff161461198c576040517f08c379a000000000000000000000000000000000000000000000000000000000815260040161198390614300565b60405180910390fd5b6119966000612dc3565b565b735c69bee701ef814a2b6a3edd4b1652cb9cc5aa6f81565b600a81565b6000606988815481106119cb576119ca614770565b5b906000526020600020906004020190506000606b60008a815260200190815260200160002060003373ffffffffffffffffffffffffffffffffffffffff1673ffffffffffffffffffffffffffffffffffffffff1681526020019081526020016000209050611a3889611442565b600081600001541115611a9d576000611a8f8260010154611a8164e8d4a51000611a738760030154876000015461283890919063ffffffff16565b61284e90919063ffffffff16565b61287a90919063ffffffff16565b9050611a9b3382612b1b565b505b8215611b90578160000160009054906101000a900473ffffffffffffffffffffffffffffffffffffffff1673ffffffffffffffffffffffffffffffffffffffff1663d505accf33308b8b8b8b8b6040518863ffffffff1660e01b8152600401611b0c979695949392919061403f565b600060405180830381600087803b158015611b2657600080fd5b505af1158015611b3a573d6000803e3d6000fd5b50505050611b8f33308a8560000160009054906101000a900473ffffffffffffffffffffffffffffffffffffffff1673ffffffffffffffffffffffffffffffffffffffff16612898909392919063ffffffff16565b5b611ba788826000015461286490919063ffffffff16565b8160000181905550611be164e8d4a51000611bd38460030154846000015461283890919063ffffffff16565b61284e90919063ffffffff16565b8160010181905550883373ffffffffffffffffffffffffffffffffffffffff167f90890809c654f11d6e72a28fa60149770a0d11ec6c92319d6ceb2bb0a4ea1a158a604051611c3091906143e0565b60405180910390a3505050505050505050565b606660009054906101000a900473ffffffffffffffffffffffffffffffffffffffff1673ffffffffffffffffffffffffffffffffffffffff163373ffffffffffffffffffffffffffffffffffffffff1614611cd3576040517f08c379a0000000000000000000000000000000000000000000000000000000008152600401611cca906142e0565b60405180910390fd5b80606660006101000a81548173ffffffffffffffffffffffffffffffffffffffff021916908373ffffffffffffffffffffffffffffffffffffffff16021790555050565b6000603360009054906101000a900473ffffffffffffffffffffffffffffffffffffffff16905090565b60006067548211611d7957611d72600a611d64858561287a90919063ffffffff16565b61283890919063ffffffff16565b9050611ded565b6067548310611d9c57611d95838361287a90919063ffffffff16565b9050611ded565b611dea611db46067548461287a90919063ffffffff16565b611ddc600a611dce8760675461287a90919063ffffffff16565b61283890919063ffffffff16565b61286490919063ffffffff16565b90505b92915050565b606b602052816000526040600020602052806000526040600020600091509150508060000154908060010154905082565b60685481565b6000806000735c69bee701ef814a2b6a3edd4b1652cb9cc5aa6f73ffffffffffffffffffffffffffffffffffffffff1663e6a4390588886040518363ffffffff1660e01b8152600401611e7e929190613f61565b60206040518083038186803b158015611e9657600080fd5b505afa158015611eaa573d6000803e3d6000fd5b505050506040513d601f19601f82011682018060405250810190611ece9190613850565b9050600080611ede838a8a612e89565b915091506000871415611f0657611ef6868284612f91565b9450848694509450505050611f2b565b6000861415611f2757611f1a878383612f91565b9350869450505050611f2b565b5050505b94509492505050565b600060019054906101000a900460ff1680611f5a575060008054906101000a900460ff16155b611f99576040517f08c379a0000000000000000000000000000000000000000000000000000000008152600401611f90906142a0565b60405180910390fd5b60008060019054906101000a900460ff161590508015611fe9576001600060016101000a81548160ff02191690831515021790555060016000806101000a81548160ff0219169083151502179055505b611ff161304b565b85606560006101000a81548173ffffffffffffffffffffffffffffffffffffffff021916908373ffffffffffffffffffffffffffffffffffffffff16021790555084606660006101000a81548173ffffffffffffffffffffffffffffffffffffffff021916908373ffffffffffffffffffffffffffffffffffffffff160217905550836068819055508160678190555082606d819055506000606c8190555080156120b15760008060016101000a81548160ff0219169083151502179055505b505050505050565b606660009054906101000a900473ffffffffffffffffffffffffffffffffffffffff1681565b6000806000803411156122d65773c02aaa39b223fe8d0a0e5c4f27ead9083c756cc273ffffffffffffffffffffffffffffffffffffffff168773ffffffffffffffffffffffffffffffffffffffff16141561213b578592508391505b73c02aaa39b223fe8d0a0e5c4f27ead9083c756cc273ffffffffffffffffffffffffffffffffffffffff168673ffffffffffffffffffffffffffffffffffffffff16141561218a578692508491505b60006121ac73c02aaa39b223fe8d0a0e5c4f27ead9083c756cc2853486611e2a565b9150506121dc3330838773ffffffffffffffffffffffffffffffffffffffff16612898909392919063ffffffff16565b61221b737a250d5630b4cf539739df2c5dacb4c659f2488d828673ffffffffffffffffffffffffffffffffffffffff166129219092919063ffffffff16565b6000737a250d5630b4cf539739df2c5dacb4c659f2488d73ffffffffffffffffffffffffffffffffffffffff1663f305d71934878560018030426040518863ffffffff1660e01b8152600401612276969594939291906140d7565b6060604051808303818588803b15801561228f57600080fd5b505af11580156122a3573d6000803e3d6000fd5b50505050506040513d601f19601f820116820180604052508101906122c89190613b5f565b92505050809250505061247c565b6000806122e589898989611e2a565b915091506123163330848c73ffffffffffffffffffffffffffffffffffffffff16612898909392919063ffffffff16565b6123433330838b73ffffffffffffffffffffffffffffffffffffffff16612898909392919063ffffffff16565b612382737a250d5630b4cf539739df2c5dacb4c659f2488d838b73ffffffffffffffffffffffffffffffffffffffff166129219092919063ffffffff16565b6123c1737a250d5630b4cf539739df2c5dacb4c659f2488d828a73ffffffffffffffffffffffffffffffffffffffff166129219092919063ffffffff16565b6000737a250d5630b4cf539739df2c5dacb4c659f2488d73ffffffffffffffffffffffffffffffffffffffff1663e8e337008b8b868660018030426040518963ffffffff1660e01b815260040161241f989796959493929190613fc1565b606060405180830381600087803b15801561243957600080fd5b505af115801561244d573d6000803e3d6000fd5b505050506040513d601f19601f820116820180604052508101906124719190613b5f565b925050508093505050505b6000735c69bee701ef814a2b6a3edd4b1652cb9cc5aa6f73ffffffffffffffffffffffffffffffffffffffff1663e6a4390589896040518363ffffffff1660e01b81526004016124cd929190613f61565b60206040518083038186803b1580156124e557600080fd5b505afa1580156124f9573d6000803e3d6000fd5b505050506040513d601f19601f8201168201806040525081019061251d9190613850565b905060008190506000606a60008473ffffffffffffffffffffffffffffffffffffffff1673ffffffffffffffffffffffffffffffffffffffff168152602001908152602001600020541480156125c15750606e60009054906101000a900473ffffffffffffffffffffffffffffffffffffffff1673ffffffffffffffffffffffffffffffffffffffff168273ffffffffffffffffffffffffffffffffffffffff1614155b156126c457600073ffffffffffffffffffffffffffffffffffffffff16606e60009054906101000a900473ffffffffffffffffffffffffffffffffffffffff1673ffffffffffffffffffffffffffffffffffffffff16141561265f5781606e60006101000a81548173ffffffffffffffffffffffffffffffffffffffff021916908373ffffffffffffffffffffffffffffffffffffffff1602179055505b61266c6001826000610a55565b600161267661076a565b6126809190614537565b606a60008473ffffffffffffffffffffffffffffffffffffffff1673ffffffffffffffffffffffffffffffffffffffff168152602001908152602001600020819055505b61270f606a60008473ffffffffffffffffffffffffffffffffffffffff1673ffffffffffffffffffffffffffffffffffffffff1681526020019081526020016000205484600061102d565b505050505050505050565b606e60009054906101000a900473ffffffffffffffffffffffffffffffffffffffff1681565b612748612890565b73ffffffffffffffffffffffffffffffffffffffff16612766611d17565b73ffffffffffffffffffffffffffffffffffffffff16146127bc576040517f08c379a00000000000000000000000000000000000000000000000000000000081526004016127b390614300565b60405180910390fd5b600073ffffffffffffffffffffffffffffffffffffffff168173ffffffffffffffffffffffffffffffffffffffff16141561282c576040517f08c379a000000000000000000000000000000000000000000000000000000000815260040161282390614220565b60405180910390fd5b61283581612dc3565b50565b6000818361284691906144dd565b905092915050565b6000818361285c91906144ac565b905092915050565b600081836128729190614456565b905092915050565b600081836128889190614537565b905092915050565b600033905090565b61291b846323b872dd60e01b8585856040516024016128b993929190613f8a565b604051602081830303815290604052907bffffffffffffffffffffffffffffffffffffffffffffffffffffffff19166020820180517bffffffffffffffffffffffffffffffffffffffffffffffffffffffff8381831617835250505050613134565b50505050565b60008114806129ba575060008373ffffffffffffffffffffffffffffffffffffffff1663dd62ed3e30856040518363ffffffff1660e01b8152600401612968929190613f61565b60206040518083038186803b15801561298057600080fd5b505afa158015612994573d6000803e3d6000fd5b505050506040513d601f19601f820116820180604052508101906129b89190613a0c565b145b6129f9576040517f08c379a00000000000000000000000000000000000000000000000000000000081526004016129f0906143c0565b60405180910390fd5b612a7a8363095ea7b360e01b8484604051602401612a189291906140ae565b604051602081830303815290604052907bffffffffffffffffffffffffffffffffffffffffffffffffffffffff19166020820180517bffffffffffffffffffffffffffffffffffffffffffffffffffffffff8381831617835250505050613134565b505050565b612b178282604051602401612a959291906141f0565b6040516020818303038152906040527f9710a9d0000000000000000000000000000000000000000000000000000000007bffffffffffffffffffffffffffffffffffffffffffffffffffffffff19166020820180517bffffffffffffffffffffffffffffffffffffffffffffffffffffffff83818316178352505050506131fb565b5050565b6000606560009054906101000a900473ffffffffffffffffffffffffffffffffffffffff1673ffffffffffffffffffffffffffffffffffffffff166370a08231306040518263ffffffff1660e01b8152600401612b789190613f46565b60206040518083038186803b158015612b9057600080fd5b505afa158015612ba4573d6000803e3d6000fd5b505050506040513d601f19601f82011682018060405250810190612bc89190613a0c565b905080821115612c8757606560009054906101000a900473ffffffffffffffffffffffffffffffffffffffff1673ffffffffffffffffffffffffffffffffffffffff1663a9059cbb84836040518363ffffffff1660e01b8152600401612c2f9291906140ae565b602060405180830381600087803b158015612c4957600080fd5b505af1158015612c5d573d6000803e3d6000fd5b505050506040513d601f19601f82011682018060405250810190612c8191906138e4565b50612d38565b606560009054906101000a900473ffffffffffffffffffffffffffffffffffffffff1673ffffffffffffffffffffffffffffffffffffffff1663a9059cbb84846040518363ffffffff1660e01b8152600401612ce49291906140ae565b602060405180830381600087803b158015612cfe57600080fd5b505af1158015612d12573d6000803e3d6000fd5b505050506040513d601f19601f82011682018060405250810190612d3691906138e4565b505b505050565b612dbe8363a9059cbb60e01b8484604051602401612d5c9291906140ae565b604051602081830303815290604052907bffffffffffffffffffffffffffffffffffffffffffffffffffffffff19166020820180517bffffffffffffffffffffffffffffffffffffffffffffffffffffffff8381831617835250505050613134565b505050565b6000603360009054906101000a900473ffffffffffffffffffffffffffffffffffffffff16905081603360006101000a81548173ffffffffffffffffffffffffffffffffffffffff021916908373ffffffffffffffffffffffffffffffffffffffff1602179055508173ffffffffffffffffffffffffffffffffffffffff168173ffffffffffffffffffffffffffffffffffffffff167f8be0079c531659141344cd1fd0a4f28419497f9722a3daafe3b4186f6b6457e060405160405180910390a35050565b6000806000612e988585613224565b5090506000808773ffffffffffffffffffffffffffffffffffffffff16630902f1ac6040518163ffffffff1660e01b815260040160606040518083038186803b158015612ee457600080fd5b505afa158015612ef8573d6000803e3d6000fd5b505050506040513d601f19601f82011682018060405250810190612f1c919061398c565b506dffffffffffffffffffffffffffff1691506dffffffffffffffffffffffffffff1691508273ffffffffffffffffffffffffffffffffffffffff168773ffffffffffffffffffffffffffffffffffffffff1614612f7b578082612f7e565b81815b8095508196505050505050935093915050565b6000808411612fd5576040517f08c379a0000000000000000000000000000000000000000000000000000000008152600401612fcc90614320565b60405180910390fd5b600083118015612fe55750600082115b613024576040517f08c379a000000000000000000000000000000000000000000000000000000000815260040161301b906142c0565b60405180910390fd5b82613038838661335290919063ffffffff16565b61304291906144ac565b90509392505050565b600060019054906101000a900460ff1680613071575060008054906101000a900460ff16155b6130b0576040517f08c379a00000000000000000000000000000000000000000000000000000000081526004016130a7906142a0565b60405180910390fd5b60008060019054906101000a900460ff161590508015613100576001600060016101000a81548160ff02191690831515021790555060016000806101000a81548160ff0219169083151502179055505b6131086133bf565b613110613498565b80156131315760008060016101000a81548160ff0219169083151502179055505b50565b6000613196826040518060400160405280602081526020017f5361666545524332303a206c6f772d6c6576656c2063616c6c206661696c65648152508573ffffffffffffffffffffffffffffffffffffffff166135819092919063ffffffff16565b90506000815111156131f657808060200190518101906131b691906138e4565b6131f5576040517f08c379a00000000000000000000000000000000000000000000000000000000081526004016131ec906143a0565b60405180910390fd5b5b505050565b60008151905060006a636f6e736f6c652e6c6f679050602083016000808483855afa5050505050565b6000808273ffffffffffffffffffffffffffffffffffffffff168473ffffffffffffffffffffffffffffffffffffffff161415613296576040517f08c379a000000000000000000000000000000000000000000000000000000000815260040161328d90614260565b60405180910390fd5b8273ffffffffffffffffffffffffffffffffffffffff168473ffffffffffffffffffffffffffffffffffffffff16106132d05782846132d3565b83835b8092508193505050600073ffffffffffffffffffffffffffffffffffffffff168273ffffffffffffffffffffffffffffffffffffffff16141561334b576040517f08c379a000000000000000000000000000000000000000000000000000000000815260040161334290614380565b60405180910390fd5b9250929050565b60008082148061337a57508282838561336b91906144dd565b92508261337891906144ac565b145b6133b9576040517f08c379a00000000000000000000000000000000000000000000000000000000081526004016133b090614240565b60405180910390fd5b92915050565b600060019054906101000a900460ff16806133e5575060008054906101000a900460ff16155b613424576040517f08c379a000000000000000000000000000000000000000000000000000000000815260040161341b906142a0565b60405180910390fd5b60008060019054906101000a900460ff161590508015613474576001600060016101000a81548160ff02191690831515021790555060016000806101000a81548160ff0219169083151502179055505b80156134955760008060016101000a81548160ff0219169083151502179055505b50565b600060019054906101000a900460ff16806134be575060008054906101000a900460ff16155b6134fd576040517f08c379a00000000000000000000000000000000000000000000000000000000081526004016134f4906142a0565b60405180910390fd5b60008060019054906101000a900460ff16159050801561354d576001600060016101000a81548160ff02191690831515021790555060016000806101000a81548160ff0219169083151502179055505b61355d613558612890565b612dc3565b801561357e5760008060016101000a81548160ff0219169083151502179055505b50565b60606135908484600085613599565b90509392505050565b6060824710156135de576040517f08c379a00000000000000000000000000000000000000000000000000000000081526004016135d590614280565b60405180910390fd5b6135e7856136ad565b613626576040517f08c379a000000000000000000000000000000000000000000000000000000000815260040161361d90614340565b60405180910390fd5b6000808673ffffffffffffffffffffffffffffffffffffffff16858760405161364f9190613f2f565b60006040518083038185875af1925050503d806000811461368c576040519150601f19603f3d011682016040523d82523d6000602084013e613691565b606091505b50915091506136a18282866136c0565b92505050949350505050565b600080823b905060008111915050919050565b606083156136d057829050613720565b6000835111156136e35782518084602001fd5b816040517f08c379a000000000000000000000000000000000000000000000000000000000815260040161371791906141ce565b60405180910390fd5b9392505050565b60008135905061373681614b23565b92915050565b60008151905061374b81614b23565b92915050565b60008135905061376081614b3a565b92915050565b60008151905061377581614b3a565b92915050565b60008135905061378a81614b51565b92915050565b60008135905061379f81614b68565b92915050565b6000813590506137b481614b7f565b92915050565b6000815190506137c981614b96565b92915050565b6000813590506137de81614bad565b92915050565b6000815190506137f381614bad565b92915050565b60008151905061380881614bc4565b92915050565b60008135905061381d81614bdb565b92915050565b6000602082840312156138395761383861479f565b5b600061384784828501613727565b91505092915050565b6000602082840312156138665761386561479f565b5b60006138748482850161373c565b91505092915050565b600080600080608085870312156138975761389661479f565b5b60006138a587828801613727565b94505060206138b687828801613727565b93505060406138c7878288016137cf565b92505060606138d8878288016137cf565b91505092959194509250565b6000602082840312156138fa576138f961479f565b5b600061390884828501613766565b91505092915050565b600080600080600060a0868803121561392d5761392c61479f565b5b600061393b88828901613790565b955050602061394c88828901613727565b945050604061395d888289016137cf565b935050606061396e888289016137cf565b925050608061397f888289016137cf565b9150509295509295909350565b6000806000606084860312156139a5576139a461479f565b5b60006139b3868287016137ba565b93505060206139c4868287016137ba565b92505060406139d5868287016137f9565b9150509250925092565b6000602082840312156139f5576139f461479f565b5b6000613a03848285016137cf565b91505092915050565b600060208284031215613a2257613a2161479f565b5b6000613a30848285016137e4565b91505092915050565b60008060408385031215613a5057613a4f61479f565b5b6000613a5e858286016137cf565b9250506020613a6f85828601613727565b9150509250929050565b600080600060608486031215613a9257613a9161479f565b5b6000613aa0868287016137cf565b9350506020613ab1868287016137a5565b9250506040613ac286828701613751565b9150509250925092565b60008060408385031215613ae357613ae261479f565b5b6000613af1858286016137cf565b9250506020613b02858286016137cf565b9150509250929050565b600080600060608486031215613b2557613b2461479f565b5b6000613b33868287016137cf565b9350506020613b44868287016137cf565b9250506040613b5586828701613751565b9150509250925092565b600080600060608486031215613b7857613b7761479f565b5b6000613b86868287016137e4565b9350506020613b97868287016137e4565b9250506040613ba8868287016137e4565b9150509250925092565b600080600080600080600060e0888a031215613bd157613bd061479f565b5b6000613bdf8a828b016137cf565b9750506020613bf08a828b016137cf565b9650506040613c018a828b016137cf565b9550506060613c128a828b0161380e565b9450506080613c238a828b0161377b565b93505060a0613c348a828b0161377b565b92505060c0613c458a828b01613751565b91505092959891949750929550565b613c5d8161456b565b82525050565b613c6c81614589565b82525050565b6000613c7d82614424565b613c87818561443a565b9350613c97818560208601614696565b80840191505092915050565b613cac81614618565b82525050565b613cbb8161462a565b82525050565b613cca8161463c565b82525050565b613cd98161464e565b82525050565b613ce881614660565b82525050565b6000613cf98261442f565b613d038185614445565b9350613d13818560208601614696565b613d1c816147a4565b840191505092915050565b6000613d34602683614445565b9150613d3f826147b5565b604082019050919050565b6000613d57601483614445565b9150613d6282614804565b602082019050919050565b6000613d7a602583614445565b9150613d858261482d565b604082019050919050565b6000613d9d602683614445565b9150613da88261487c565b604082019050919050565b6000613dc0602e83614445565b9150613dcb826148cb565b604082019050919050565b6000613de3602883614445565b9150613dee8261491a565b604082019050919050565b6000613e06600983614445565b9150613e1182614969565b602082019050919050565b6000613e29602083614445565b9150613e3482614992565b602082019050919050565b6000613e4c602583614445565b9150613e57826149bb565b604082019050919050565b6000613e6f601d83614445565b9150613e7a82614a0a565b602082019050919050565b6000613e92601283614445565b9150613e9d82614a33565b602082019050919050565b6000613eb5601e83614445565b9150613ec082614a5c565b602082019050919050565b6000613ed8602a83614445565b9150613ee382614a85565b604082019050919050565b6000613efb603683614445565b9150613f0682614ad4565b604082019050919050565b613f1a816145f1565b82525050565b613f298161460b565b82525050565b6000613f3b8284613c72565b915081905092915050565b6000602082019050613f5b6000830184613c54565b92915050565b6000604082019050613f766000830185613c54565b613f836020830184613c54565b9392505050565b6000606082019050613f9f6000830186613c54565b613fac6020830185613c54565b613fb96040830184613f11565b949350505050565b600061010082019050613fd7600083018b613c54565b613fe4602083018a613c54565b613ff16040830189613f11565b613ffe6060830188613f11565b61400b6080830187613cdf565b61401860a0830186613cdf565b61402560c0830185613c54565b61403260e0830184613f11565b9998505050505050505050565b600060e082019050614054600083018a613c54565b6140616020830189613c54565b61406e6040830188613f11565b61407b6060830187613f11565b6140886080830186613f20565b61409560a0830185613c63565b6140a260c0830184613c63565b98975050505050505050565b60006040820190506140c36000830185613c54565b6140d06020830184613f11565b9392505050565b600060c0820190506140ec6000830189613c54565b6140f96020830188613f11565b6141066040830187613cdf565b6141136060830186613cdf565b6141206080830185613c54565b61412d60a0830184613f11565b979650505050505050565b600060208201905061414d6000830184613ca3565b92915050565b60006080820190506141686000830187613cb2565b6141756020830186613f11565b6141826040830185613f11565b61418f6060830184613f11565b95945050505050565b60006020820190506141ad6000830184613cc1565b92915050565b60006020820190506141c86000830184613cd0565b92915050565b600060208201905081810360008301526141e88184613cee565b905092915050565b6000604082019050818103600083015261420a8185613cee565b90506142196020830184613f11565b9392505050565b6000602082019050818103600083015261423981613d27565b9050919050565b6000602082019050818103600083015261425981613d4a565b9050919050565b6000602082019050818103600083015261427981613d6d565b9050919050565b6000602082019050818103600083015261429981613d90565b9050919050565b600060208201905081810360008301526142b981613db3565b9050919050565b600060208201905081810360008301526142d981613dd6565b9050919050565b600060208201905081810360008301526142f981613df9565b9050919050565b6000602082019050818103600083015261431981613e1c565b9050919050565b6000602082019050818103600083015261433981613e3f565b9050919050565b6000602082019050818103600083015261435981613e62565b9050919050565b6000602082019050818103600083015261437981613e85565b9050919050565b6000602082019050818103600083015261439981613ea8565b9050919050565b600060208201905081810360008301526143b981613ecb565b9050919050565b600060208201905081810360008301526143d981613eee565b9050919050565b60006020820190506143f56000830184613f11565b92915050565b60006040820190506144106000830185613f11565b61441d6020830184613f11565b9392505050565b600081519050919050565b600081519050919050565b600081905092915050565b600082825260208201905092915050565b6000614461826145f1565b915061446c836145f1565b9250827fffffffffffffffffffffffffffffffffffffffffffffffffffffffffffffffff038211156144a1576144a0614712565b5b828201905092915050565b60006144b7826145f1565b91506144c2836145f1565b9250826144d2576144d1614741565b5b828204905092915050565b60006144e8826145f1565b91506144f3836145f1565b9250817fffffffffffffffffffffffffffffffffffffffffffffffffffffffffffffffff048311821515161561452c5761452b614712565b5b828202905092915050565b6000614542826145f1565b915061454d836145f1565b9250828210156145605761455f614712565b5b828203905092915050565b6000614576826145d1565b9050919050565b60008115159050919050565b6000819050919050565b600061459e8261456b565b9050919050565b60006145b08261456b565b9050919050565b60006dffffffffffffffffffffffffffff82169050919050565b600073ffffffffffffffffffffffffffffffffffffffff82169050919050565b6000819050919050565b600063ffffffff82169050919050565b600060ff82169050919050565b600061462382614672565b9050919050565b600061463582614672565b9050919050565b600061464782614672565b9050919050565b600061465982614672565b9050919050565b600061466b826145f1565b9050919050565b600061467d82614684565b9050919050565b600061468f826145d1565b9050919050565b60005b838110156146b4578082015181840152602081019050614699565b838111156146c3576000848401525b50505050565b60006146d4826145f1565b91507fffffffffffffffffffffffffffffffffffffffffffffffffffffffffffffffff82141561470757614706614712565b5b600182019050919050565b7f4e487b7100000000000000000000000000000000000000000000000000000000600052601160045260246000fd5b7f4e487b7100000000000000000000000000000000000000000000000000000000600052601260045260246000fd5b7f4e487b7100000000000000000000000000000000000000000000000000000000600052603260045260246000fd5b600080fd5b6000601f19601f8301169050919050565b7f4f776e61626c653a206e6577206f776e657220697320746865207a65726f206160008201527f6464726573730000000000000000000000000000000000000000000000000000602082015250565b7f64732d6d6174682d6d756c2d6f766572666c6f77000000000000000000000000600082015250565b7f556e697377617056324c6962726172793a204944454e544943414c5f4144445260008201527f4553534553000000000000000000000000000000000000000000000000000000602082015250565b7f416464726573733a20696e73756666696369656e742062616c616e636520666f60008201527f722063616c6c0000000000000000000000000000000000000000000000000000602082015250565b7f496e697469616c697a61626c653a20636f6e747261637420697320616c72656160008201527f647920696e697469616c697a6564000000000000000000000000000000000000602082015250565b7f556e697377617056324c6962726172793a20494e53554646494349454e545f4c60008201527f4951554944495459000000000000000000000000000000000000000000000000602082015250565b7f6465763a207775743f0000000000000000000000000000000000000000000000600082015250565b7f4f776e61626c653a2063616c6c6572206973206e6f7420746865206f776e6572600082015250565b7f556e697377617056324c6962726172793a20494e53554646494349454e545f4160008201527f4d4f554e54000000000000000000000000000000000000000000000000000000602082015250565b7f416464726573733a2063616c6c20746f206e6f6e2d636f6e7472616374000000600082015250565b7f77697468647261773a206e6f7420676f6f640000000000000000000000000000600082015250565b7f556e697377617056324c6962726172793a205a45524f5f414444524553530000600082015250565b7f5361666545524332303a204552433230206f7065726174696f6e20646964206e60008201527f6f74207375636365656400000000000000000000000000000000000000000000602082015250565b7f5361666545524332303a20617070726f76652066726f6d206e6f6e2d7a65726f60008201527f20746f206e6f6e2d7a65726f20616c6c6f77616e636500000000000000000000602082015250565b614b2c8161456b565b8114614b3757600080fd5b50565b614b438161457d565b8114614b4e57600080fd5b50565b614b5a81614589565b8114614b6557600080fd5b50565b614b7181614593565b8114614b7c57600080fd5b50565b614b88816145a5565b8114614b9357600080fd5b50565b614b9f816145b7565b8114614baa57600080fd5b50565b614bb6816145f1565b8114614bc157600080fd5b50565b614bcd816145fb565b8114614bd857600080fd5b50565b614be48161460b565b8114614bef57600080fd5b5056fea2646970667358221220af6a09dc2f0f59e3e8c8373535dc7278d4584f6e173b2cc9b13e307dc041106a64736f6c63430008070033",
  "devdoc": {
    "kind": "dev",
    "methods": {
      "owner()": {
        "details": "Returns the address of the current owner."
      },
      "renounceOwnership()": {
        "details": "Leaves the contract without owner. It will not be possible to call `onlyOwner` functions anymore. Can only be called by the current owner. NOTE: Renouncing ownership will leave the contract without an owner, thereby removing any functionality that is only available to the owner."
      },
      "transferOwnership(address)": {
        "details": "Transfers ownership of the contract to a new account (`newOwner`). Can only be called by the current owner."
      }
    },
    "version": 1
  },
  "userdoc": {
    "kind": "user",
    "methods": {
      "addAndStake(address,address,uint256,uint256)": {
        "notice": "Main functions"
      }
    },
    "version": 1
  },
  "storageLayout": {
    "storage": [
      {
        "astId": 130,
        "contract": "contracts/UniswapLPStaking.sol:UniswapLPStaking",
        "label": "_initialized",
        "offset": 0,
        "slot": "0",
        "type": "t_bool"
      },
      {
        "astId": 133,
        "contract": "contracts/UniswapLPStaking.sol:UniswapLPStaking",
        "label": "_initializing",
        "offset": 1,
        "slot": "0",
        "type": "t_bool"
      },
      {
        "astId": 760,
        "contract": "contracts/UniswapLPStaking.sol:UniswapLPStaking",
        "label": "__gap",
        "offset": 0,
        "slot": "1",
        "type": "t_array(t_uint256)50_storage"
      },
      {
        "astId": 10,
        "contract": "contracts/UniswapLPStaking.sol:UniswapLPStaking",
        "label": "_owner",
        "offset": 0,
        "slot": "51",
        "type": "t_address"
      },
      {
        "astId": 123,
        "contract": "contracts/UniswapLPStaking.sol:UniswapLPStaking",
        "label": "__gap",
        "offset": 0,
        "slot": "52",
        "type": "t_array(t_uint256)49_storage"
      },
      {
        "astId": 3912,
        "contract": "contracts/UniswapLPStaking.sol:UniswapLPStaking",
        "label": "sushi",
        "offset": 0,
        "slot": "101",
        "type": "t_contract(ArepaToken)3292"
      },
      {
        "astId": 3914,
        "contract": "contracts/UniswapLPStaking.sol:UniswapLPStaking",
        "label": "devaddr",
        "offset": 0,
        "slot": "102",
        "type": "t_address"
      },
      {
        "astId": 3916,
        "contract": "contracts/UniswapLPStaking.sol:UniswapLPStaking",
        "label": "bonusEndBlock",
        "offset": 0,
        "slot": "103",
        "type": "t_uint256"
      },
      {
        "astId": 3918,
        "contract": "contracts/UniswapLPStaking.sol:UniswapLPStaking",
        "label": "sushiPerBlock",
        "offset": 0,
        "slot": "104",
        "type": "t_uint256"
      },
      {
        "astId": 3925,
        "contract": "contracts/UniswapLPStaking.sol:UniswapLPStaking",
        "label": "poolInfo",
        "offset": 0,
        "slot": "105",
        "type": "t_array(t_struct(PoolInfo)3909_storage)dyn_storage"
      },
      {
        "astId": 3929,
        "contract": "contracts/UniswapLPStaking.sol:UniswapLPStaking",
        "label": "pairPid",
        "offset": 0,
        "slot": "106",
        "type": "t_mapping(t_address,t_uint256)"
      },
      {
        "astId": 3936,
        "contract": "contracts/UniswapLPStaking.sol:UniswapLPStaking",
        "label": "userInfo",
        "offset": 0,
        "slot": "107",
        "type": "t_mapping(t_uint256,t_mapping(t_address,t_struct(UserInfo)3899_storage))"
      },
      {
        "astId": 3938,
        "contract": "contracts/UniswapLPStaking.sol:UniswapLPStaking",
        "label": "totalAllocPoint",
        "offset": 0,
        "slot": "108",
        "type": "t_uint256"
      },
      {
        "astId": 3940,
        "contract": "contracts/UniswapLPStaking.sol:UniswapLPStaking",
        "label": "startBlock",
        "offset": 0,
        "slot": "109",
        "type": "t_uint256"
      },
      {
        "astId": 3942,
        "contract": "contracts/UniswapLPStaking.sol:UniswapLPStaking",
        "label": "lpTokenPid0",
        "offset": 0,
        "slot": "110",
        "type": "t_address"
      }
    ],
    "types": {
      "t_address": {
        "encoding": "inplace",
        "label": "address",
        "numberOfBytes": "20"
      },
      "t_array(t_struct(PoolInfo)3909_storage)dyn_storage": {
        "base": "t_struct(PoolInfo)3909_storage",
        "encoding": "dynamic_array",
        "label": "struct UniswapLPStaking.PoolInfo[]",
        "numberOfBytes": "32"
      },
      "t_array(t_uint256)49_storage": {
        "base": "t_uint256",
        "encoding": "inplace",
        "label": "uint256[49]",
        "numberOfBytes": "1568"
      },
      "t_array(t_uint256)50_storage": {
        "base": "t_uint256",
        "encoding": "inplace",
        "label": "uint256[50]",
        "numberOfBytes": "1600"
      },
      "t_bool": {
        "encoding": "inplace",
        "label": "bool",
        "numberOfBytes": "1"
      },
      "t_contract(ArepaToken)3292": {
        "encoding": "inplace",
        "label": "contract ArepaToken",
        "numberOfBytes": "20"
      },
      "t_contract(IERC20Upgradeable)248": {
        "encoding": "inplace",
        "label": "contract IERC20Upgradeable",
        "numberOfBytes": "20"
      },
      "t_mapping(t_address,t_struct(UserInfo)3899_storage)": {
        "encoding": "mapping",
        "key": "t_address",
        "label": "mapping(address => struct UniswapLPStaking.UserInfo)",
        "numberOfBytes": "32",
        "value": "t_struct(UserInfo)3899_storage"
      },
      "t_mapping(t_address,t_uint256)": {
        "encoding": "mapping",
        "key": "t_address",
        "label": "mapping(address => uint256)",
        "numberOfBytes": "32",
        "value": "t_uint256"
      },
      "t_mapping(t_uint256,t_mapping(t_address,t_struct(UserInfo)3899_storage))": {
        "encoding": "mapping",
        "key": "t_uint256",
        "label": "mapping(uint256 => mapping(address => struct UniswapLPStaking.UserInfo))",
        "numberOfBytes": "32",
        "value": "t_mapping(t_address,t_struct(UserInfo)3899_storage)"
      },
      "t_struct(PoolInfo)3909_storage": {
        "encoding": "inplace",
        "label": "struct UniswapLPStaking.PoolInfo",
        "members": [
          {
            "astId": 3902,
            "contract": "contracts/UniswapLPStaking.sol:UniswapLPStaking",
            "label": "lpToken",
            "offset": 0,
            "slot": "0",
            "type": "t_contract(IERC20Upgradeable)248"
          },
          {
            "astId": 3904,
            "contract": "contracts/UniswapLPStaking.sol:UniswapLPStaking",
            "label": "allocPoint",
            "offset": 0,
            "slot": "1",
            "type": "t_uint256"
          },
          {
            "astId": 3906,
            "contract": "contracts/UniswapLPStaking.sol:UniswapLPStaking",
            "label": "lastRewardBlock",
            "offset": 0,
            "slot": "2",
            "type": "t_uint256"
          },
          {
            "astId": 3908,
            "contract": "contracts/UniswapLPStaking.sol:UniswapLPStaking",
            "label": "accSushiPerShare",
            "offset": 0,
            "slot": "3",
            "type": "t_uint256"
          }
        ],
        "numberOfBytes": "128"
      },
      "t_struct(UserInfo)3899_storage": {
        "encoding": "inplace",
        "label": "struct UniswapLPStaking.UserInfo",
        "members": [
          {
            "astId": 3896,
            "contract": "contracts/UniswapLPStaking.sol:UniswapLPStaking",
            "label": "amount",
            "offset": 0,
            "slot": "0",
            "type": "t_uint256"
          },
          {
            "astId": 3898,
            "contract": "contracts/UniswapLPStaking.sol:UniswapLPStaking",
            "label": "rewardDebt",
            "offset": 0,
            "slot": "1",
            "type": "t_uint256"
          }
        ],
        "numberOfBytes": "64"
      },
      "t_uint256": {
        "encoding": "inplace",
        "label": "uint256",
        "numberOfBytes": "32"
      }
    }
  }
}