{
  "address": "0xFD471836031dc5108809D173A067e8486B9047A3",
  "abi": [
    {
      "anonymous": false,
      "inputs": [
        {
          "indexed": true,
          "internalType": "address",
          "name": "user",
          "type": "address"
        },
        {
          "indexed": true,
          "internalType": "uint256",
          "name": "pid",
          "type": "uint256"
        },
        {
          "indexed": false,
          "internalType": "uint256",
          "name": "amount",
          "type": "uint256"
        }
      ],
      "name": "Deposit",
      "type": "event"
    },
    {
      "anonymous": false,
      "inputs": [
        {
          "indexed": true,
          "internalType": "address",
          "name": "user",
          "type": "address"
        },
        {
          "indexed": true,
          "internalType": "uint256",
          "name": "pid",
          "type": "uint256"
        },
        {
          "indexed": false,
          "internalType": "uint256",
          "name": "amount",
          "type": "uint256"
        }
      ],
      "name": "EmergencyWithdraw",
      "type": "event"
    },
    {
      "anonymous": false,
      "inputs": [
        {
          "indexed": false,
          "internalType": "uint256",
          "name": "amountLpTokens",
          "type": "uint256"
        }
      ],
      "name": "LPTokens",
      "type": "event"
    },
    {
      "anonymous": false,
      "inputs": [
        {
          "indexed": true,
          "internalType": "address",
          "name": "previousOwner",
          "type": "address"
        },
        {
          "indexed": true,
          "internalType": "address",
          "name": "newOwner",
          "type": "address"
        }
      ],
      "name": "OwnershipTransferred",
      "type": "event"
    },
    {
      "anonymous": false,
      "inputs": [
        {
          "indexed": true,
          "internalType": "address",
          "name": "user",
          "type": "address"
        },
        {
          "indexed": true,
          "internalType": "uint256",
          "name": "pid",
          "type": "uint256"
        },
        {
          "indexed": false,
          "internalType": "uint256",
          "name": "amount",
          "type": "uint256"
        },
        {
          "indexed": false,
          "internalType": "uint256",
          "name": "pending",
          "type": "uint256"
        }
      ],
      "name": "Withdraw",
      "type": "event"
    },
    {
      "anonymous": false,
      "inputs": [
        {
          "indexed": true,
          "internalType": "uint256",
          "name": "allocation",
          "type": "uint256"
        },
        {
          "indexed": false,
          "internalType": "address",
          "name": "lpToken",
          "type": "address"
        }
      ],
      "name": "poolAdded",
      "type": "event"
    },
    {
      "inputs": [],
      "name": "BONUS_MULTIPLIER",
      "outputs": [
        {
          "internalType": "uint256",
          "name": "",
          "type": "uint256"
        }
      ],
      "stateMutability": "view",
      "type": "function"
    },
    {
      "inputs": [
        {
          "internalType": "uint256",
          "name": "_allocPoint",
          "type": "uint256"
        },
        {
          "internalType": "contract IERC20Upgradeable",
          "name": "_lpToken",
          "type": "address"
        },
        {
          "internalType": "bool",
          "name": "_withUpdate",
          "type": "bool"
        }
      ],
      "name": "add",
      "outputs": [],
      "stateMutability": "nonpayable",
      "type": "function"
    },
    {
      "inputs": [
        {
          "internalType": "address",
          "name": "_tokenA",
          "type": "address"
        },
        {
          "internalType": "address",
          "name": "_tokenB",
          "type": "address"
        },
        {
          "internalType": "uint256",
          "name": "_amountA",
          "type": "uint256"
        },
        {
          "internalType": "uint256",
          "name": "_amountB",
          "type": "uint256"
        }
      ],
      "name": "addAndStake",
      "outputs": [],
      "stateMutability": "payable",
      "type": "function"
    },
    {
      "inputs": [
        {
          "internalType": "address",
          "name": "_tokenA",
          "type": "address"
        },
        {
          "internalType": "address",
          "name": "_tokenB",
          "type": "address"
        },
        {
          "internalType": "uint256",
          "name": "_amountA",
          "type": "uint256"
        },
        {
          "internalType": "uint256",
          "name": "_amountB",
          "type": "uint256"
        }
      ],
      "name": "addLiquidityOnly",
      "outputs": [],
      "stateMutability": "payable",
      "type": "function"
    },
    {
      "inputs": [],
      "name": "arepa",
      "outputs": [
        {
          "internalType": "contract ArepaToken",
          "name": "",
          "type": "address"
        }
      ],
      "stateMutability": "view",
      "type": "function"
    },
    {
      "inputs": [],
      "name": "arepaPerBlock",
      "outputs": [
        {
          "internalType": "uint256",
          "name": "",
          "type": "uint256"
        }
      ],
      "stateMutability": "view",
      "type": "function"
    },
    {
      "inputs": [],
      "name": "bonusEndBlock",
      "outputs": [
        {
          "internalType": "uint256",
          "name": "",
          "type": "uint256"
        }
      ],
      "stateMutability": "view",
      "type": "function"
    },
    {
      "inputs": [
        {
          "internalType": "uint256",
          "name": "_pid",
          "type": "uint256"
        },
        {
          "internalType": "uint256",
          "name": "_amount",
          "type": "uint256"
        },
        {
          "internalType": "bool",
          "name": "transfer",
          "type": "bool"
        }
      ],
      "name": "deposit",
      "outputs": [],
      "stateMutability": "nonpayable",
      "type": "function"
    },
    {
      "inputs": [
        {
          "internalType": "uint256",
          "name": "_pid",
          "type": "uint256"
        },
        {
          "internalType": "uint256",
          "name": "_amount",
          "type": "uint256"
        },
        {
          "internalType": "uint256",
          "name": "_deadline",
          "type": "uint256"
        },
        {
          "internalType": "uint8",
          "name": "_v",
          "type": "uint8"
        },
        {
          "internalType": "bytes32",
          "name": "_r",
          "type": "bytes32"
        },
        {
          "internalType": "bytes32",
          "name": "_s",
          "type": "bytes32"
        },
        {
          "internalType": "bool",
          "name": "transfer",
          "type": "bool"
        }
      ],
      "name": "depositWithPermit",
      "outputs": [],
      "stateMutability": "nonpayable",
      "type": "function"
    },
    {
      "inputs": [
        {
          "internalType": "address",
          "name": "_devaddr",
          "type": "address"
        }
      ],
      "name": "dev",
      "outputs": [],
      "stateMutability": "nonpayable",
      "type": "function"
    },
    {
      "inputs": [],
      "name": "devaddr",
      "outputs": [
        {
          "internalType": "address",
          "name": "",
          "type": "address"
        }
      ],
      "stateMutability": "view",
      "type": "function"
    },
    {
      "inputs": [
        {
          "internalType": "address",
          "name": "_tokenA",
          "type": "address"
        },
        {
          "internalType": "address",
          "name": "_tokenB",
          "type": "address"
        },
        {
          "internalType": "uint256",
          "name": "_amountA",
          "type": "uint256"
        },
        {
          "internalType": "uint256",
          "name": "_amountB",
          "type": "uint256"
        }
      ],
      "name": "getAmountOfTokens",
      "outputs": [
        {
          "internalType": "uint256",
          "name": "amountAOptimal",
          "type": "uint256"
        },
        {
          "internalType": "uint256",
          "name": "amountBOptimal",
          "type": "uint256"
        }
      ],
      "stateMutability": "view",
      "type": "function"
    },
    {
      "inputs": [
        {
          "internalType": "uint256",
          "name": "_from",
          "type": "uint256"
        },
        {
          "internalType": "uint256",
          "name": "_to",
          "type": "uint256"
        }
      ],
      "name": "getMultiplier",
      "outputs": [
        {
          "internalType": "uint256",
          "name": "",
          "type": "uint256"
        }
      ],
      "stateMutability": "view",
      "type": "function"
    },
    {
      "inputs": [
        {
          "internalType": "contract ArepaToken",
          "name": "_arepa",
          "type": "address"
        },
        {
          "internalType": "address",
          "name": "_devaddr",
          "type": "address"
        },
        {
          "internalType": "uint256",
          "name": "_arepaPerBlock",
          "type": "uint256"
        },
        {
          "internalType": "uint256",
          "name": "_startBlock",
          "type": "uint256"
        },
        {
          "internalType": "uint256",
          "name": "_bonusEndBlock",
          "type": "uint256"
        }
      ],
      "name": "initialize",
      "outputs": [],
      "stateMutability": "nonpayable",
      "type": "function"
    },
    {
      "inputs": [],
      "name": "lpTokenPid0",
      "outputs": [
        {
          "internalType": "address",
          "name": "",
          "type": "address"
        }
      ],
      "stateMutability": "view",
      "type": "function"
    },
    {
      "inputs": [],
      "name": "massUpdatePools",
      "outputs": [],
      "stateMutability": "nonpayable",
      "type": "function"
    },
    {
      "inputs": [],
      "name": "owner",
      "outputs": [
        {
          "internalType": "address",
          "name": "",
          "type": "address"
        }
      ],
      "stateMutability": "view",
      "type": "function"
    },
    {
      "inputs": [
        {
          "internalType": "address",
          "name": "",
          "type": "address"
        }
      ],
      "name": "pairPid",
      "outputs": [
        {
          "internalType": "uint256",
          "name": "",
          "type": "uint256"
        }
      ],
      "stateMutability": "view",
      "type": "function"
    },
    {
      "inputs": [
        {
          "internalType": "uint256",
          "name": "_pid",
          "type": "uint256"
        },
        {
          "internalType": "address",
          "name": "_user",
          "type": "address"
        }
      ],
      "name": "pendingArepa",
      "outputs": [
        {
          "internalType": "uint256",
          "name": "",
          "type": "uint256"
        }
      ],
      "stateMutability": "view",
      "type": "function"
    },
    {
      "inputs": [
        {
          "internalType": "uint256",
          "name": "",
          "type": "uint256"
        }
      ],
      "name": "poolInfo",
      "outputs": [
        {
          "internalType": "contract IERC20Upgradeable",
          "name": "lpToken",
          "type": "address"
        },
        {
          "internalType": "uint256",
          "name": "allocPoint",
          "type": "uint256"
        },
        {
          "internalType": "uint256",
          "name": "lastRewardBlock",
          "type": "uint256"
        },
        {
          "internalType": "uint256",
          "name": "accArepaPerShare",
          "type": "uint256"
        }
      ],
      "stateMutability": "view",
      "type": "function"
    },
    {
      "inputs": [],
      "name": "poolLength",
      "outputs": [
        {
          "internalType": "uint256",
          "name": "",
          "type": "uint256"
        }
      ],
      "stateMutability": "view",
      "type": "function"
    },
    {
      "inputs": [],
      "name": "renounceOwnership",
      "outputs": [],
      "stateMutability": "nonpayable",
      "type": "function"
    },
    {
      "inputs": [],
      "name": "startBlock",
      "outputs": [
        {
          "internalType": "uint256",
          "name": "",
          "type": "uint256"
        }
      ],
      "stateMutability": "view",
      "type": "function"
    },
    {
      "inputs": [],
      "name": "totalAllocPoint",
      "outputs": [
        {
          "internalType": "uint256",
          "name": "",
          "type": "uint256"
        }
      ],
      "stateMutability": "view",
      "type": "function"
    },
    {
      "inputs": [
        {
          "internalType": "address",
          "name": "newOwner",
          "type": "address"
        }
      ],
      "name": "transferOwnership",
      "outputs": [],
      "stateMutability": "nonpayable",
      "type": "function"
    },
    {
      "inputs": [],
      "name": "uniswapFactoryV2",
      "outputs": [
        {
          "internalType": "contract IUniswapV2Factory",
          "name": "",
          "type": "address"
        }
      ],
      "stateMutability": "view",
      "type": "function"
    },
    {
      "inputs": [],
      "name": "uniswapRouterV2",
      "outputs": [
        {
          "internalType": "contract IUniswapV2Router02",
          "name": "",
          "type": "address"
        }
      ],
      "stateMutability": "view",
      "type": "function"
    },
    {
      "inputs": [
        {
          "internalType": "uint256",
          "name": "_pid",
          "type": "uint256"
        }
      ],
      "name": "updatePool",
      "outputs": [],
      "stateMutability": "nonpayable",
      "type": "function"
    },
    {
      "inputs": [
        {
          "internalType": "uint256",
          "name": "",
          "type": "uint256"
        },
        {
          "internalType": "address",
          "name": "",
          "type": "address"
        }
      ],
      "name": "userInfo",
      "outputs": [
        {
          "internalType": "uint256",
          "name": "amount",
          "type": "uint256"
        },
        {
          "internalType": "uint256",
          "name": "rewardDebt",
          "type": "uint256"
        }
      ],
      "stateMutability": "view",
      "type": "function"
    },
    {
      "inputs": [
        {
          "internalType": "uint256",
          "name": "_pid",
          "type": "uint256"
        },
        {
          "internalType": "uint256",
          "name": "_amount",
          "type": "uint256"
        }
      ],
      "name": "withdraw",
      "outputs": [],
      "stateMutability": "nonpayable",
      "type": "function"
    },
    {
      "stateMutability": "payable",
      "type": "receive"
    }
  ],
  "transactionHash": "0xc0681eb6a0f04706056495e2430ddcaa6e290ccc2562bfb697164775b95f618d",
  "args": [],
  "solcInputHash": "5c438266693612236f7e34b8ce227a05",
  "bytecode": "0x608060405234801561001057600080fd5b50614947806100206000396000f3fe6080604052600436106101d15760003560e01c8063715018a6116100f757806393f1a40b11610095578063d49e77cd11610064578063d49e77cd14610667578063e0b9416214610692578063e13cfa6a146106ae578063f2fde38b146106d9576101d8565b806393f1a40b14610597578063c67ae582146105d5578063d07823ff14610613578063d13f90b41461063e576101d8565b80638bda1194116100d15780638bda1194146104dd5780638d88a90e146105065780638da5cb5b1461052f5780638dbb1e3a1461055a576101d8565b8063715018a6146104705780638a064c3e146104875780638aa28550146104b2576101d8565b80633e928ec61161016f57806351eb05a61161013e57806351eb05a6146103da57806357b76bde14610403578063596fa9e31461042e578063630b5ba114610459576101d8565b80633e928ec61461032057806343a0d0661461035d578063441a3e701461038657806348cd4cb1146103af576101d8565b80631526fe27116101ab5780631526fe271461026157806317caf6f1146102a15780631aed6553146102cc5780631eaaa045146102f7576101d8565b806307ed8dbd146101dd578063081e3eda146101f95780630a0e0b5114610224576101d8565b366101d857005b600080fd5b6101f760048036038101906101f29190613560565b610702565b005b34801561020557600080fd5b5061020e610b0e565b60405161021b91906140d6565b60405180910390f35b34801561023057600080fd5b5061024b60048036038101906102469190613506565b610b1b565b60405161025891906140d6565b60405180910390f35b34801561026d57600080fd5b50610288600480360381019061028391906136c2565b610b33565b6040516102989493929190613e59565b60405180910390f35b3480156102ad57600080fd5b506102b6610b93565b6040516102c391906140d6565b60405180910390f35b3480156102d857600080fd5b506102e1610b99565b6040516102ee91906140d6565b60405180910390f35b34801561030357600080fd5b5061031e6004803603810190610319919061375c565b610b9f565b005b34801561032c57600080fd5b506103476004803603810190610342919061371c565b610e54565b60405161035491906140d6565b60405180910390f35b34801561036957600080fd5b50610384600480360381019061037f91906137ef565b611088565b005b34801561039257600080fd5b506103ad60048036038101906103a891906137af565b611277565b005b3480156103bb57600080fd5b506103c4611497565b6040516103d191906140d6565b60405180910390f35b3480156103e657600080fd5b5061040160048036038101906103fc91906136c2565b61149d565b005b34801561040f57600080fd5b506104186116db565b6040516104259190613e3e565b60405180910390f35b34801561043a57600080fd5b50610443611701565b6040516104509190613eb9565b60405180910390f35b34801561046557600080fd5b5061046e611719565b005b34801561047c57600080fd5b5061048561174c565b005b34801561049357600080fd5b5061049c6117d4565b6040516104a99190613e9e565b60405180910390f35b3480156104be57600080fd5b506104c76117ec565b6040516104d491906140d6565b60405180910390f35b3480156104e957600080fd5b5061050460048036038101906104ff9190613895565b6117f1565b005b34801561051257600080fd5b5061052d60048036038101906105289190613506565b611a7f565b005b34801561053b57600080fd5b50610544611b53565b6040516105519190613c4c565b60405180910390f35b34801561056657600080fd5b50610581600480360381019061057c91906137af565b611b7d565b60405161058e91906140d6565b60405180910390f35b3480156105a357600080fd5b506105be60048036038101906105b9919061371c565b611c2f565b6040516105cc9291906140f1565b60405180910390f35b3480156105e157600080fd5b506105fc60048036038101906105f79190613560565b611c60565b60405161060a9291906140f1565b60405180910390f35b34801561061f57600080fd5b50610628611d6a565b60405161063591906140d6565b60405180910390f35b34801561064a57600080fd5b50610665600480360381019061066091906135f4565b611d70565b005b34801561067357600080fd5b5061067c611ef5565b6040516106899190613c4c565b60405180910390f35b6106ac60048036038101906106a79190613560565b611f1b565b005b3480156106ba57600080fd5b506106c36124c2565b6040516106d09190613c4c565b60405180910390f35b3480156106e557600080fd5b5061070060048036038101906106fb9190613506565b6124e8565b005b600034111561092e5760008073c02aaa39b223fe8d0a0e5c4f27ead9083c756cc273ffffffffffffffffffffffffffffffffffffffff168673ffffffffffffffffffffffffffffffffffffffff16141561075d578491508290505b73c02aaa39b223fe8d0a0e5c4f27ead9083c756cc273ffffffffffffffffffffffffffffffffffffffff168573ffffffffffffffffffffffffffffffffffffffff1614156107ac578591508390505b60006107ce73c02aaa39b223fe8d0a0e5c4f27ead9083c756cc2843485611c60565b9150506107fe3330838673ffffffffffffffffffffffffffffffffffffffff166125e0909392919063ffffffff16565b61083d737a250d5630b4cf539739df2c5dacb4c659f2488d828573ffffffffffffffffffffffffffffffffffffffff166126699092919063ffffffff16565b6000737a250d5630b4cf539739df2c5dacb4c659f2488d73ffffffffffffffffffffffffffffffffffffffff1663f305d71934868560018033426040518863ffffffff1660e01b815260040161089896959493929190613ddd565b6060604051808303818588803b1580156108b157600080fd5b505af11580156108c5573d6000803e3d6000fd5b50505050506040513d601f19601f820116820180604052508101906108ea9190613842565b925050507fef2f529f04d805a6d7b14b7d8aa5dab5f3005e079fc00fb9945e1e016c0bd2c18160405161091d91906140d6565b60405180910390a150505050610b08565b60008061093d86868686611c60565b9150915061096e3330848973ffffffffffffffffffffffffffffffffffffffff166125e0909392919063ffffffff16565b61099b3330838873ffffffffffffffffffffffffffffffffffffffff166125e0909392919063ffffffff16565b6109da737a250d5630b4cf539739df2c5dacb4c659f2488d838873ffffffffffffffffffffffffffffffffffffffff166126699092919063ffffffff16565b610a19737a250d5630b4cf539739df2c5dacb4c659f2488d828773ffffffffffffffffffffffffffffffffffffffff166126699092919063ffffffff16565b6000737a250d5630b4cf539739df2c5dacb4c659f2488d73ffffffffffffffffffffffffffffffffffffffff1663e8e337008888868660018033426040518963ffffffff1660e01b8152600401610a77989796959493929190613cc7565b606060405180830381600087803b158015610a9157600080fd5b505af1158015610aa5573d6000803e3d6000fd5b505050506040513d601f19601f82011682018060405250810190610ac99190613842565b925050507fef2f529f04d805a6d7b14b7d8aa5dab5f3005e079fc00fb9945e1e016c0bd2c181604051610afc91906140d6565b60405180910390a15050505b50505050565b6000606980549050905090565b606a6020528060005260406000206000915090505481565b60698181548110610b4357600080fd5b90600052602060002090600402016000915090508060000160009054906101000a900473ffffffffffffffffffffffffffffffffffffffff16908060010154908060020154908060030154905084565b606c5481565b60675481565b610ba76127c7565b73ffffffffffffffffffffffffffffffffffffffff16610bc5611b53565b73ffffffffffffffffffffffffffffffffffffffff1614610c1b576040517f08c379a0000000000000000000000000000000000000000000000000000000008152600401610c1290613ff6565b60405180910390fd5b8015610c2a57610c29611719565b5b600073ffffffffffffffffffffffffffffffffffffffff16606e60009054906101000a900473ffffffffffffffffffffffffffffffffffffffff1673ffffffffffffffffffffffffffffffffffffffff161415610cc35781606e60006101000a81548173ffffffffffffffffffffffffffffffffffffffff021916908373ffffffffffffffffffffffffffffffffffffffff1602179055505b6000606d544311610cd657606d54610cd8565b435b9050610cef84606c546127cf90919063ffffffff16565b606c81905550606960405180608001604052808573ffffffffffffffffffffffffffffffffffffffff1681526020018681526020018381526020016000815250908060018154018082558091505060019003906000526020600020906004020160009091909190915060008201518160000160006101000a81548173ffffffffffffffffffffffffffffffffffffffff021916908373ffffffffffffffffffffffffffffffffffffffff16021790555060208201518160010155604082015181600201556060820151816003015550506001610dc9610b0e565b610dd3919061422d565b606a60008573ffffffffffffffffffffffffffffffffffffffff1673ffffffffffffffffffffffffffffffffffffffff16815260200190815260200160002081905550837ffda689826c3c70a37a04ff8eab1ee83c854750764bf71346a2302b0bcb4534c484604051610e469190613c4c565b60405180910390a250505050565b60008060698481548110610e6b57610e6a614466565b5b906000526020600020906004020190506000606b600086815260200190815260200160002060008573ffffffffffffffffffffffffffffffffffffffff1673ffffffffffffffffffffffffffffffffffffffff168152602001908152602001600020905060008260030154905060008360000160009054906101000a900473ffffffffffffffffffffffffffffffffffffffff1673ffffffffffffffffffffffffffffffffffffffff166370a08231306040518263ffffffff1660e01b8152600401610f379190613c4c565b60206040518083038186803b158015610f4f57600080fd5b505afa158015610f63573d6000803e3d6000fd5b505050506040513d601f19601f82011682018060405250810190610f8791906136ef565b9050836002015443118015610f9d575060008114155b15611038576000610fb2856002015443611b7d565b90506000610ff5606c54610fe78860010154610fd9606854876127e590919063ffffffff16565b6127e590919063ffffffff16565b6127fb90919063ffffffff16565b90506110336110248461101664e8d4a51000856127e590919063ffffffff16565b6127fb90919063ffffffff16565b856127cf90919063ffffffff16565b935050505b61107c836001015461106e64e8d4a510006110608688600001546127e590919063ffffffff16565b6127fb90919063ffffffff16565b61281190919063ffffffff16565b94505050505092915050565b60006069848154811061109e5761109d614466565b5b906000526020600020906004020190506000606b600086815260200190815260200160002060003373ffffffffffffffffffffffffffffffffffffffff1673ffffffffffffffffffffffffffffffffffffffff168152602001908152602001600020905061110b8561149d565b600081600001541115611170576000611162826001015461115464e8d4a51000611146876003015487600001546127e590919063ffffffff16565b6127fb90919063ffffffff16565b61281190919063ffffffff16565b905061116e3382612827565b505b82156111c8576111c73330868560000160009054906101000a900473ffffffffffffffffffffffffffffffffffffffff1673ffffffffffffffffffffffffffffffffffffffff166125e0909392919063ffffffff16565b5b6111df8482600001546127cf90919063ffffffff16565b816000018190555061121964e8d4a5100061120b846003015484600001546127e590919063ffffffff16565b6127fb90919063ffffffff16565b8160010181905550843373ffffffffffffffffffffffffffffffffffffffff167f90890809c654f11d6e72a28fa60149770a0d11ec6c92319d6ceb2bb0a4ea1a158660405161126891906140d6565b60405180910390a35050505050565b60006069838154811061128d5761128c614466565b5b906000526020600020906004020190506000606b600085815260200190815260200160002060003373ffffffffffffffffffffffffffffffffffffffff1673ffffffffffffffffffffffffffffffffffffffff16815260200190815260200160002090508281600001541015611338576040517f08c379a000000000000000000000000000000000000000000000000000000000815260040161132f90614056565b60405180910390fd5b6113418461149d565b600061138b826001015461137d64e8d4a5100061136f876003015487600001546127e590919063ffffffff16565b6127fb90919063ffffffff16565b61281190919063ffffffff16565b90506113973382612827565b6113ae84836000015461281190919063ffffffff16565b82600001819055506113e864e8d4a510006113da856003015485600001546127e590919063ffffffff16565b6127fb90919063ffffffff16565b826001018190555061143f33858560000160009054906101000a900473ffffffffffffffffffffffffffffffffffffffff1673ffffffffffffffffffffffffffffffffffffffff16612a499092919063ffffffff16565b843373ffffffffffffffffffffffffffffffffffffffff167f02f25270a4d87bea75db541cdfe559334a275b4a233520ed6c0a2429667cca9486846040516114889291906140f1565b60405180910390a35050505050565b606d5481565b6000606982815481106114b3576114b2614466565b5b90600052602060002090600402019050806002015443116114d457506116d8565b60008160000160009054906101000a900473ffffffffffffffffffffffffffffffffffffffff1673ffffffffffffffffffffffffffffffffffffffff166370a08231306040518263ffffffff1660e01b81526004016115339190613c4c565b60206040518083038186803b15801561154b57600080fd5b505afa15801561155f573d6000803e3d6000fd5b505050506040513d601f19601f8201168201806040525081019061158391906136ef565b9050600081141561159e5743826002018190555050506116d8565b60006115ae836002015443611b7d565b905060006115f1606c546115e386600101546115d5606854876127e590919063ffffffff16565b6127e590919063ffffffff16565b6127fb90919063ffffffff16565b9050606560009054906101000a900473ffffffffffffffffffffffffffffffffffffffff1673ffffffffffffffffffffffffffffffffffffffff166340c10f1930836040518363ffffffff1660e01b8152600401611650929190613db4565b600060405180830381600087803b15801561166a57600080fd5b505af115801561167e573d6000803e3d6000fd5b505050506116c26116af846116a164e8d4a51000856127e590919063ffffffff16565b6127fb90919063ffffffff16565b85600301546127cf90919063ffffffff16565b8460030181905550438460020181905550505050505b50565b606560009054906101000a900473ffffffffffffffffffffffffffffffffffffffff1681565b737a250d5630b4cf539739df2c5dacb4c659f2488d81565b6000606980549050905060005b81811015611748576117378161149d565b80611741906143bf565b9050611726565b5050565b6117546127c7565b73ffffffffffffffffffffffffffffffffffffffff16611772611b53565b73ffffffffffffffffffffffffffffffffffffffff16146117c8576040517f08c379a00000000000000000000000000000000000000000000000000000000081526004016117bf90613ff6565b60405180910390fd5b6117d26000612acf565b565b735c69bee701ef814a2b6a3edd4b1652cb9cc5aa6f81565b600a81565b60006069888154811061180757611806614466565b5b906000526020600020906004020190506000606b60008a815260200190815260200160002060003373ffffffffffffffffffffffffffffffffffffffff1673ffffffffffffffffffffffffffffffffffffffff16815260200190815260200160002090506118748961149d565b6000816000015411156118d95760006118cb82600101546118bd64e8d4a510006118af876003015487600001546127e590919063ffffffff16565b6127fb90919063ffffffff16565b61281190919063ffffffff16565b90506118d73382612827565b505b82156119cc578160000160009054906101000a900473ffffffffffffffffffffffffffffffffffffffff1673ffffffffffffffffffffffffffffffffffffffff1663d505accf33308b8b8b8b8b6040518863ffffffff1660e01b81526004016119489796959493929190613d45565b600060405180830381600087803b15801561196257600080fd5b505af1158015611976573d6000803e3d6000fd5b505050506119cb33308a8560000160009054906101000a900473ffffffffffffffffffffffffffffffffffffffff1673ffffffffffffffffffffffffffffffffffffffff166125e0909392919063ffffffff16565b5b6119e38882600001546127cf90919063ffffffff16565b8160000181905550611a1d64e8d4a51000611a0f846003015484600001546127e590919063ffffffff16565b6127fb90919063ffffffff16565b8160010181905550883373ffffffffffffffffffffffffffffffffffffffff167f90890809c654f11d6e72a28fa60149770a0d11ec6c92319d6ceb2bb0a4ea1a158a604051611a6c91906140d6565b60405180910390a3505050505050505050565b606660009054906101000a900473ffffffffffffffffffffffffffffffffffffffff1673ffffffffffffffffffffffffffffffffffffffff163373ffffffffffffffffffffffffffffffffffffffff1614611b0f576040517f08c379a0000000000000000000000000000000000000000000000000000000008152600401611b0690613fd6565b60405180910390fd5b80606660006101000a81548173ffffffffffffffffffffffffffffffffffffffff021916908373ffffffffffffffffffffffffffffffffffffffff16021790555050565b6000603360009054906101000a900473ffffffffffffffffffffffffffffffffffffffff16905090565b60006067548211611bb557611bae600a611ba0858561281190919063ffffffff16565b6127e590919063ffffffff16565b9050611c29565b6067548310611bd857611bd1838361281190919063ffffffff16565b9050611c29565b611c26611bf06067548461281190919063ffffffff16565b611c18600a611c0a8760675461281190919063ffffffff16565b6127e590919063ffffffff16565b6127cf90919063ffffffff16565b90505b92915050565b606b602052816000526040600020602052806000526040600020600091509150508060000154908060010154905082565b6000806000735c69bee701ef814a2b6a3edd4b1652cb9cc5aa6f73ffffffffffffffffffffffffffffffffffffffff1663e6a4390588886040518363ffffffff1660e01b8152600401611cb4929190613c67565b60206040518083038186803b158015611ccc57600080fd5b505afa158015611ce0573d6000803e3d6000fd5b505050506040513d601f19601f82011682018060405250810190611d049190613533565b9050600080611d14838a8a612b95565b915091506000871415611d3c57611d2c868284612c9d565b9450848694509450505050611d61565b6000861415611d5d57611d50878383612c9d565b9350869450505050611d61565b5050505b94509492505050565b60685481565b600060019054906101000a900460ff1680611d96575060008054906101000a900460ff16155b611dd5576040517f08c379a0000000000000000000000000000000000000000000000000000000008152600401611dcc90613f96565b60405180910390fd5b60008060019054906101000a900460ff161590508015611e25576001600060016101000a81548160ff02191690831515021790555060016000806101000a81548160ff0219169083151502179055505b611e2d612d57565b85606560006101000a81548173ffffffffffffffffffffffffffffffffffffffff021916908373ffffffffffffffffffffffffffffffffffffffff16021790555084606660006101000a81548173ffffffffffffffffffffffffffffffffffffffff021916908373ffffffffffffffffffffffffffffffffffffffff160217905550836068819055508160678190555082606d819055506000606c819055508015611eed5760008060016101000a81548160ff0219169083151502179055505b505050505050565b606660009054906101000a900473ffffffffffffffffffffffffffffffffffffffff1681565b6000735c69bee701ef814a2b6a3edd4b1652cb9cc5aa6f73ffffffffffffffffffffffffffffffffffffffff1663e6a4390586866040518363ffffffff1660e01b8152600401611f6c929190613c67565b60206040518083038186803b158015611f8457600080fd5b505afa158015611f98573d6000803e3d6000fd5b505050506040513d601f19601f82011682018060405250810190611fbc9190613533565b90506000606a60008373ffffffffffffffffffffffffffffffffffffffff1673ffffffffffffffffffffffffffffffffffffffff1681526020019081526020016000205414158061205a5750606e60009054906101000a900473ffffffffffffffffffffffffffffffffffffffff1673ffffffffffffffffffffffffffffffffffffffff168173ffffffffffffffffffffffffffffffffffffffff16145b612099576040517f08c379a000000000000000000000000000000000000000000000000000000000815260040161209090613ef6565b60405180910390fd5b6000803411156122925760008073c02aaa39b223fe8d0a0e5c4f27ead9083c756cc273ffffffffffffffffffffffffffffffffffffffff168873ffffffffffffffffffffffffffffffffffffffff1614156120f5578691508490505b73c02aaa39b223fe8d0a0e5c4f27ead9083c756cc273ffffffffffffffffffffffffffffffffffffffff168773ffffffffffffffffffffffffffffffffffffffff161415612144578791508590505b600061216673c02aaa39b223fe8d0a0e5c4f27ead9083c756cc2843485611c60565b9150506121963330838673ffffffffffffffffffffffffffffffffffffffff166125e0909392919063ffffffff16565b6121d5737a250d5630b4cf539739df2c5dacb4c659f2488d828573ffffffffffffffffffffffffffffffffffffffff166126699092919063ffffffff16565b6000737a250d5630b4cf539739df2c5dacb4c659f2488d73ffffffffffffffffffffffffffffffffffffffff1663f305d71934868560018030426040518863ffffffff1660e01b815260040161223096959493929190613ddd565b6060604051808303818588803b15801561224957600080fd5b505af115801561225d573d6000803e3d6000fd5b50505050506040513d601f19601f820116820180604052508101906122829190613842565b9250505080945050505050612438565b6000806122a188888888611c60565b915091506122d23330848b73ffffffffffffffffffffffffffffffffffffffff166125e0909392919063ffffffff16565b6122ff3330838a73ffffffffffffffffffffffffffffffffffffffff166125e0909392919063ffffffff16565b61233e737a250d5630b4cf539739df2c5dacb4c659f2488d838a73ffffffffffffffffffffffffffffffffffffffff166126699092919063ffffffff16565b61237d737a250d5630b4cf539739df2c5dacb4c659f2488d828973ffffffffffffffffffffffffffffffffffffffff166126699092919063ffffffff16565b6000737a250d5630b4cf539739df2c5dacb4c659f2488d73ffffffffffffffffffffffffffffffffffffffff1663e8e337008a8a868660018030426040518963ffffffff1660e01b81526004016123db989796959493929190613cc7565b606060405180830381600087803b1580156123f557600080fd5b505af1158015612409573d6000803e3d6000fd5b505050506040513d601f19601f8201168201806040525081019061242d9190613842565b925050508093505050505b7fef2f529f04d805a6d7b14b7d8aa5dab5f3005e079fc00fb9945e1e016c0bd2c18160405161246791906140d6565b60405180910390a16124ba606a60008473ffffffffffffffffffffffffffffffffffffffff1673ffffffffffffffffffffffffffffffffffffffff16815260200190815260200160002054826000611088565b505050505050565b606e60009054906101000a900473ffffffffffffffffffffffffffffffffffffffff1681565b6124f06127c7565b73ffffffffffffffffffffffffffffffffffffffff1661250e611b53565b73ffffffffffffffffffffffffffffffffffffffff1614612564576040517f08c379a000000000000000000000000000000000000000000000000000000000815260040161255b90613ff6565b60405180910390fd5b600073ffffffffffffffffffffffffffffffffffffffff168173ffffffffffffffffffffffffffffffffffffffff1614156125d4576040517f08c379a00000000000000000000000000000000000000000000000000000000081526004016125cb90613f16565b60405180910390fd5b6125dd81612acf565b50565b612663846323b872dd60e01b85858560405160240161260193929190613c90565b604051602081830303815290604052907bffffffffffffffffffffffffffffffffffffffffffffffffffffffff19166020820180517bffffffffffffffffffffffffffffffffffffffffffffffffffffffff8381831617835250505050612e40565b50505050565b6000811480612702575060008373ffffffffffffffffffffffffffffffffffffffff1663dd62ed3e30856040518363ffffffff1660e01b81526004016126b0929190613c67565b60206040518083038186803b1580156126c857600080fd5b505afa1580156126dc573d6000803e3d6000fd5b505050506040513d601f19601f8201168201806040525081019061270091906136ef565b145b612741576040517f08c379a0000000000000000000000000000000000000000000000000000000008152600401612738906140b6565b60405180910390fd5b6127c28363095ea7b360e01b8484604051602401612760929190613db4565b604051602081830303815290604052907bffffffffffffffffffffffffffffffffffffffffffffffffffffffff19166020820180517bffffffffffffffffffffffffffffffffffffffffffffffffffffffff8381831617835250505050612e40565b505050565b600033905090565b600081836127dd919061414c565b905092915050565b600081836127f391906141d3565b905092915050565b6000818361280991906141a2565b905092915050565b6000818361281f919061422d565b905092915050565b6000606560009054906101000a900473ffffffffffffffffffffffffffffffffffffffff1673ffffffffffffffffffffffffffffffffffffffff166370a08231306040518263ffffffff1660e01b81526004016128849190613c4c565b60206040518083038186803b15801561289c57600080fd5b505afa1580156128b0573d6000803e3d6000fd5b505050506040513d601f19601f820116820180604052508101906128d491906136ef565b90508082111561299357606560009054906101000a900473ffffffffffffffffffffffffffffffffffffffff1673ffffffffffffffffffffffffffffffffffffffff1663a9059cbb84836040518363ffffffff1660e01b815260040161293b929190613db4565b602060405180830381600087803b15801561295557600080fd5b505af1158015612969573d6000803e3d6000fd5b505050506040513d601f19601f8201168201806040525081019061298d91906135c7565b50612a44565b606560009054906101000a900473ffffffffffffffffffffffffffffffffffffffff1673ffffffffffffffffffffffffffffffffffffffff1663a9059cbb84846040518363ffffffff1660e01b81526004016129f0929190613db4565b602060405180830381600087803b158015612a0a57600080fd5b505af1158015612a1e573d6000803e3d6000fd5b505050506040513d601f19601f82011682018060405250810190612a4291906135c7565b505b505050565b612aca8363a9059cbb60e01b8484604051602401612a68929190613db4565b604051602081830303815290604052907bffffffffffffffffffffffffffffffffffffffffffffffffffffffff19166020820180517bffffffffffffffffffffffffffffffffffffffffffffffffffffffff8381831617835250505050612e40565b505050565b6000603360009054906101000a900473ffffffffffffffffffffffffffffffffffffffff16905081603360006101000a81548173ffffffffffffffffffffffffffffffffffffffff021916908373ffffffffffffffffffffffffffffffffffffffff1602179055508173ffffffffffffffffffffffffffffffffffffffff168173ffffffffffffffffffffffffffffffffffffffff167f8be0079c531659141344cd1fd0a4f28419497f9722a3daafe3b4186f6b6457e060405160405180910390a35050565b6000806000612ba48585612f07565b5090506000808773ffffffffffffffffffffffffffffffffffffffff16630902f1ac6040518163ffffffff1660e01b815260040160606040518083038186803b158015612bf057600080fd5b505afa158015612c04573d6000803e3d6000fd5b505050506040513d601f19601f82011682018060405250810190612c28919061366f565b506dffffffffffffffffffffffffffff1691506dffffffffffffffffffffffffffff1691508273ffffffffffffffffffffffffffffffffffffffff168773ffffffffffffffffffffffffffffffffffffffff1614612c87578082612c8a565b81815b8095508196505050505050935093915050565b6000808411612ce1576040517f08c379a0000000000000000000000000000000000000000000000000000000008152600401612cd890614016565b60405180910390fd5b600083118015612cf15750600082115b612d30576040517f08c379a0000000000000000000000000000000000000000000000000000000008152600401612d2790613fb6565b60405180910390fd5b82612d44838661303590919063ffffffff16565b612d4e91906141a2565b90509392505050565b600060019054906101000a900460ff1680612d7d575060008054906101000a900460ff16155b612dbc576040517f08c379a0000000000000000000000000000000000000000000000000000000008152600401612db390613f96565b60405180910390fd5b60008060019054906101000a900460ff161590508015612e0c576001600060016101000a81548160ff02191690831515021790555060016000806101000a81548160ff0219169083151502179055505b612e146130a2565b612e1c61317b565b8015612e3d5760008060016101000a81548160ff0219169083151502179055505b50565b6000612ea2826040518060400160405280602081526020017f5361666545524332303a206c6f772d6c6576656c2063616c6c206661696c65648152508573ffffffffffffffffffffffffffffffffffffffff166132649092919063ffffffff16565b9050600081511115612f025780806020019051810190612ec291906135c7565b612f01576040517f08c379a0000000000000000000000000000000000000000000000000000000008152600401612ef890614096565b60405180910390fd5b5b505050565b6000808273ffffffffffffffffffffffffffffffffffffffff168473ffffffffffffffffffffffffffffffffffffffff161415612f79576040517f08c379a0000000000000000000000000000000000000000000000000000000008152600401612f7090613f56565b60405180910390fd5b8273ffffffffffffffffffffffffffffffffffffffff168473ffffffffffffffffffffffffffffffffffffffff1610612fb3578284612fb6565b83835b8092508193505050600073ffffffffffffffffffffffffffffffffffffffff168273ffffffffffffffffffffffffffffffffffffffff16141561302e576040517f08c379a000000000000000000000000000000000000000000000000000000000815260040161302590614076565b60405180910390fd5b9250929050565b60008082148061305d57508282838561304e91906141d3565b92508261305b91906141a2565b145b61309c576040517f08c379a000000000000000000000000000000000000000000000000000000000815260040161309390613f36565b60405180910390fd5b92915050565b600060019054906101000a900460ff16806130c8575060008054906101000a900460ff16155b613107576040517f08c379a00000000000000000000000000000000000000000000000000000000081526004016130fe90613f96565b60405180910390fd5b60008060019054906101000a900460ff161590508015613157576001600060016101000a81548160ff02191690831515021790555060016000806101000a81548160ff0219169083151502179055505b80156131785760008060016101000a81548160ff0219169083151502179055505b50565b600060019054906101000a900460ff16806131a1575060008054906101000a900460ff16155b6131e0576040517f08c379a00000000000000000000000000000000000000000000000000000000081526004016131d790613f96565b60405180910390fd5b60008060019054906101000a900460ff161590508015613230576001600060016101000a81548160ff02191690831515021790555060016000806101000a81548160ff0219169083151502179055505b61324061323b6127c7565b612acf565b80156132615760008060016101000a81548160ff0219169083151502179055505b50565b6060613273848460008561327c565b90509392505050565b6060824710156132c1576040517f08c379a00000000000000000000000000000000000000000000000000000000081526004016132b890613f76565b60405180910390fd5b6132ca85613390565b613309576040517f08c379a000000000000000000000000000000000000000000000000000000000815260040161330090614036565b60405180910390fd5b6000808673ffffffffffffffffffffffffffffffffffffffff1685876040516133329190613c35565b60006040518083038185875af1925050503d806000811461336f576040519150601f19603f3d011682016040523d82523d6000602084013e613374565b606091505b50915091506133848282866133a3565b92505050949350505050565b600080823b905060008111915050919050565b606083156133b357829050613403565b6000835111156133c65782518084602001fd5b816040517f08c379a00000000000000000000000000000000000000000000000000000000081526004016133fa9190613ed4565b60405180910390fd5b9392505050565b60008135905061341981614842565b92915050565b60008151905061342e81614842565b92915050565b60008135905061344381614859565b92915050565b60008151905061345881614859565b92915050565b60008135905061346d81614870565b92915050565b60008135905061348281614887565b92915050565b6000813590506134978161489e565b92915050565b6000815190506134ac816148b5565b92915050565b6000813590506134c1816148cc565b92915050565b6000815190506134d6816148cc565b92915050565b6000815190506134eb816148e3565b92915050565b600081359050613500816148fa565b92915050565b60006020828403121561351c5761351b614495565b5b600061352a8482850161340a565b91505092915050565b60006020828403121561354957613548614495565b5b60006135578482850161341f565b91505092915050565b6000806000806080858703121561357a57613579614495565b5b60006135888782880161340a565b94505060206135998782880161340a565b93505060406135aa878288016134b2565b92505060606135bb878288016134b2565b91505092959194509250565b6000602082840312156135dd576135dc614495565b5b60006135eb84828501613449565b91505092915050565b600080600080600060a086880312156136105761360f614495565b5b600061361e88828901613473565b955050602061362f8882890161340a565b9450506040613640888289016134b2565b9350506060613651888289016134b2565b9250506080613662888289016134b2565b9150509295509295909350565b60008060006060848603121561368857613687614495565b5b60006136968682870161349d565b93505060206136a78682870161349d565b92505060406136b8868287016134dc565b9150509250925092565b6000602082840312156136d8576136d7614495565b5b60006136e6848285016134b2565b91505092915050565b60006020828403121561370557613704614495565b5b6000613713848285016134c7565b91505092915050565b6000806040838503121561373357613732614495565b5b6000613741858286016134b2565b92505060206137528582860161340a565b9150509250929050565b60008060006060848603121561377557613774614495565b5b6000613783868287016134b2565b935050602061379486828701613488565b92505060406137a586828701613434565b9150509250925092565b600080604083850312156137c6576137c5614495565b5b60006137d4858286016134b2565b92505060206137e5858286016134b2565b9150509250929050565b60008060006060848603121561380857613807614495565b5b6000613816868287016134b2565b9350506020613827868287016134b2565b925050604061383886828701613434565b9150509250925092565b60008060006060848603121561385b5761385a614495565b5b6000613869868287016134c7565b935050602061387a868287016134c7565b925050604061388b868287016134c7565b9150509250925092565b600080600080600080600060e0888a0312156138b4576138b3614495565b5b60006138c28a828b016134b2565b97505060206138d38a828b016134b2565b96505060406138e48a828b016134b2565b95505060606138f58a828b016134f1565b94505060806139068a828b0161345e565b93505060a06139178a828b0161345e565b92505060c06139288a828b01613434565b91505092959891949750929550565b61394081614261565b82525050565b61394f8161427f565b82525050565b60006139608261411a565b61396a8185614130565b935061397a81856020860161438c565b80840191505092915050565b61398f8161430e565b82525050565b61399e81614320565b82525050565b6139ad81614332565b82525050565b6139bc81614344565b82525050565b6139cb81614356565b82525050565b60006139dc82614125565b6139e6818561413b565b93506139f681856020860161438c565b6139ff8161449a565b840191505092915050565b6000613a1760138361413b565b9150613a22826144ab565b602082019050919050565b6000613a3a60268361413b565b9150613a45826144d4565b604082019050919050565b6000613a5d60148361413b565b9150613a6882614523565b602082019050919050565b6000613a8060258361413b565b9150613a8b8261454c565b604082019050919050565b6000613aa360268361413b565b9150613aae8261459b565b604082019050919050565b6000613ac6602e8361413b565b9150613ad1826145ea565b604082019050919050565b6000613ae960288361413b565b9150613af482614639565b604082019050919050565b6000613b0c60098361413b565b9150613b1782614688565b602082019050919050565b6000613b2f60208361413b565b9150613b3a826146b1565b602082019050919050565b6000613b5260258361413b565b9150613b5d826146da565b604082019050919050565b6000613b75601d8361413b565b9150613b8082614729565b602082019050919050565b6000613b9860128361413b565b9150613ba382614752565b602082019050919050565b6000613bbb601e8361413b565b9150613bc68261477b565b602082019050919050565b6000613bde602a8361413b565b9150613be9826147a4565b604082019050919050565b6000613c0160368361413b565b9150613c0c826147f3565b604082019050919050565b613c20816142e7565b82525050565b613c2f81614301565b82525050565b6000613c418284613955565b915081905092915050565b6000602082019050613c616000830184613937565b92915050565b6000604082019050613c7c6000830185613937565b613c896020830184613937565b9392505050565b6000606082019050613ca56000830186613937565b613cb26020830185613937565b613cbf6040830184613c17565b949350505050565b600061010082019050613cdd600083018b613937565b613cea602083018a613937565b613cf76040830189613c17565b613d046060830188613c17565b613d1160808301876139c2565b613d1e60a08301866139c2565b613d2b60c0830185613937565b613d3860e0830184613c17565b9998505050505050505050565b600060e082019050613d5a600083018a613937565b613d676020830189613937565b613d746040830188613c17565b613d816060830187613c17565b613d8e6080830186613c26565b613d9b60a0830185613946565b613da860c0830184613946565b98975050505050505050565b6000604082019050613dc96000830185613937565b613dd66020830184613c17565b9392505050565b600060c082019050613df26000830189613937565b613dff6020830188613c17565b613e0c60408301876139c2565b613e1960608301866139c2565b613e266080830185613937565b613e3360a0830184613c17565b979650505050505050565b6000602082019050613e536000830184613986565b92915050565b6000608082019050613e6e6000830187613995565b613e7b6020830186613c17565b613e886040830185613c17565b613e956060830184613c17565b95945050505050565b6000602082019050613eb360008301846139a4565b92915050565b6000602082019050613ece60008301846139b3565b92915050565b60006020820190508181036000830152613eee81846139d1565b905092915050565b60006020820190508181036000830152613f0f81613a0a565b9050919050565b60006020820190508181036000830152613f2f81613a2d565b9050919050565b60006020820190508181036000830152613f4f81613a50565b9050919050565b60006020820190508181036000830152613f6f81613a73565b9050919050565b60006020820190508181036000830152613f8f81613a96565b9050919050565b60006020820190508181036000830152613faf81613ab9565b9050919050565b60006020820190508181036000830152613fcf81613adc565b9050919050565b60006020820190508181036000830152613fef81613aff565b9050919050565b6000602082019050818103600083015261400f81613b22565b9050919050565b6000602082019050818103600083015261402f81613b45565b9050919050565b6000602082019050818103600083015261404f81613b68565b9050919050565b6000602082019050818103600083015261406f81613b8b565b9050919050565b6000602082019050818103600083015261408f81613bae565b9050919050565b600060208201905081810360008301526140af81613bd1565b9050919050565b600060208201905081810360008301526140cf81613bf4565b9050919050565b60006020820190506140eb6000830184613c17565b92915050565b60006040820190506141066000830185613c17565b6141136020830184613c17565b9392505050565b600081519050919050565b600081519050919050565b600081905092915050565b600082825260208201905092915050565b6000614157826142e7565b9150614162836142e7565b9250827fffffffffffffffffffffffffffffffffffffffffffffffffffffffffffffffff0382111561419757614196614408565b5b828201905092915050565b60006141ad826142e7565b91506141b8836142e7565b9250826141c8576141c7614437565b5b828204905092915050565b60006141de826142e7565b91506141e9836142e7565b9250817fffffffffffffffffffffffffffffffffffffffffffffffffffffffffffffffff048311821515161561422257614221614408565b5b828202905092915050565b6000614238826142e7565b9150614243836142e7565b92508282101561425657614255614408565b5b828203905092915050565b600061426c826142c7565b9050919050565b60008115159050919050565b6000819050919050565b600061429482614261565b9050919050565b60006142a682614261565b9050919050565b60006dffffffffffffffffffffffffffff82169050919050565b600073ffffffffffffffffffffffffffffffffffffffff82169050919050565b6000819050919050565b600063ffffffff82169050919050565b600060ff82169050919050565b600061431982614368565b9050919050565b600061432b82614368565b9050919050565b600061433d82614368565b9050919050565b600061434f82614368565b9050919050565b6000614361826142e7565b9050919050565b60006143738261437a565b9050919050565b6000614385826142c7565b9050919050565b60005b838110156143aa57808201518184015260208101905061438f565b838111156143b9576000848401525b50505050565b60006143ca826142e7565b91507fffffffffffffffffffffffffffffffffffffffffffffffffffffffffffffffff8214156143fd576143fc614408565b5b600182019050919050565b7f4e487b7100000000000000000000000000000000000000000000000000000000600052601160045260246000fd5b7f4e487b7100000000000000000000000000000000000000000000000000000000600052601260045260246000fd5b7f4e487b7100000000000000000000000000000000000000000000000000000000600052603260045260246000fd5b600080fd5b6000601f19601f8301169050919050565b7f506f6f6c206e6f7420737570706f727465642100000000000000000000000000600082015250565b7f4f776e61626c653a206e6577206f776e657220697320746865207a65726f206160008201527f6464726573730000000000000000000000000000000000000000000000000000602082015250565b7f64732d6d6174682d6d756c2d6f766572666c6f77000000000000000000000000600082015250565b7f556e697377617056324c6962726172793a204944454e544943414c5f4144445260008201527f4553534553000000000000000000000000000000000000000000000000000000602082015250565b7f416464726573733a20696e73756666696369656e742062616c616e636520666f60008201527f722063616c6c0000000000000000000000000000000000000000000000000000602082015250565b7f496e697469616c697a61626c653a20636f6e747261637420697320616c72656160008201527f647920696e697469616c697a6564000000000000000000000000000000000000602082015250565b7f556e697377617056324c6962726172793a20494e53554646494349454e545f4c60008201527f4951554944495459000000000000000000000000000000000000000000000000602082015250565b7f6465763a207775743f0000000000000000000000000000000000000000000000600082015250565b7f4f776e61626c653a2063616c6c6572206973206e6f7420746865206f776e6572600082015250565b7f556e697377617056324c6962726172793a20494e53554646494349454e545f4160008201527f4d4f554e54000000000000000000000000000000000000000000000000000000602082015250565b7f416464726573733a2063616c6c20746f206e6f6e2d636f6e7472616374000000600082015250565b7f77697468647261773a206e6f7420676f6f640000000000000000000000000000600082015250565b7f556e697377617056324c6962726172793a205a45524f5f414444524553530000600082015250565b7f5361666545524332303a204552433230206f7065726174696f6e20646964206e60008201527f6f74207375636365656400000000000000000000000000000000000000000000602082015250565b7f5361666545524332303a20617070726f76652066726f6d206e6f6e2d7a65726f60008201527f20746f206e6f6e2d7a65726f20616c6c6f77616e636500000000000000000000602082015250565b61484b81614261565b811461485657600080fd5b50565b61486281614273565b811461486d57600080fd5b50565b6148798161427f565b811461488457600080fd5b50565b61489081614289565b811461489b57600080fd5b50565b6148a78161429b565b81146148b257600080fd5b50565b6148be816142ad565b81146148c957600080fd5b50565b6148d5816142e7565b81146148e057600080fd5b50565b6148ec816142f1565b81146148f757600080fd5b50565b61490381614301565b811461490e57600080fd5b5056fea26469706673582212201c3acc4ba09d37f685fb705ba133520e805a124f8f1019c069d6ef3fe405ae9464736f6c63430008070033",
  "devdoc": {
    "kind": "dev",
    "methods": {
      "owner()": {
        "details": "Returns the address of the current owner."
      },
      "renounceOwnership()": {
        "details": "Leaves the contract without owner. It will not be possible to call `onlyOwner` functions anymore. Can only be called by the current owner. NOTE: Renouncing ownership will leave the contract without an owner, thereby removing any functionality that is only available to the owner."
      },
      "transferOwnership(address)": {
        "details": "Transfers ownership of the contract to a new account (`newOwner`). Can only be called by the current owner."
      }
    },
    "version": 1
  },
  "userdoc": {
    "kind": "user",
    "methods": {
      "addLiquidityOnly(address,address,uint256,uint256)": {
        "notice": "Main functions"
      }
    },
    "version": 1
  },
  "storageLayout": {
    "storage": [
      {
        "astId": 130,
        "contract": "contracts/UniswapLPStaking.sol:UniswapLPStaking",
        "label": "_initialized",
        "offset": 0,
        "slot": "0",
        "type": "t_bool"
      },
      {
        "astId": 133,
        "contract": "contracts/UniswapLPStaking.sol:UniswapLPStaking",
        "label": "_initializing",
        "offset": 1,
        "slot": "0",
        "type": "t_bool"
      },
      {
        "astId": 760,
        "contract": "contracts/UniswapLPStaking.sol:UniswapLPStaking",
        "label": "__gap",
        "offset": 0,
        "slot": "1",
        "type": "t_array(t_uint256)50_storage"
      },
      {
        "astId": 10,
        "contract": "contracts/UniswapLPStaking.sol:UniswapLPStaking",
        "label": "_owner",
        "offset": 0,
        "slot": "51",
        "type": "t_address"
      },
      {
        "astId": 123,
        "contract": "contracts/UniswapLPStaking.sol:UniswapLPStaking",
        "label": "__gap",
        "offset": 0,
        "slot": "52",
        "type": "t_array(t_uint256)49_storage"
      },
      {
        "astId": 3908,
        "contract": "contracts/UniswapLPStaking.sol:UniswapLPStaking",
        "label": "arepa",
        "offset": 0,
        "slot": "101",
        "type": "t_contract(ArepaToken)3292"
      },
      {
        "astId": 3910,
        "contract": "contracts/UniswapLPStaking.sol:UniswapLPStaking",
        "label": "devaddr",
        "offset": 0,
        "slot": "102",
        "type": "t_address"
      },
      {
        "astId": 3912,
        "contract": "contracts/UniswapLPStaking.sol:UniswapLPStaking",
        "label": "bonusEndBlock",
        "offset": 0,
        "slot": "103",
        "type": "t_uint256"
      },
      {
        "astId": 3914,
        "contract": "contracts/UniswapLPStaking.sol:UniswapLPStaking",
        "label": "arepaPerBlock",
        "offset": 0,
        "slot": "104",
        "type": "t_uint256"
      },
      {
        "astId": 3921,
        "contract": "contracts/UniswapLPStaking.sol:UniswapLPStaking",
        "label": "poolInfo",
        "offset": 0,
        "slot": "105",
        "type": "t_array(t_struct(PoolInfo)3905_storage)dyn_storage"
      },
      {
        "astId": 3925,
        "contract": "contracts/UniswapLPStaking.sol:UniswapLPStaking",
        "label": "pairPid",
        "offset": 0,
        "slot": "106",
        "type": "t_mapping(t_address,t_uint256)"
      },
      {
        "astId": 3932,
        "contract": "contracts/UniswapLPStaking.sol:UniswapLPStaking",
        "label": "userInfo",
        "offset": 0,
        "slot": "107",
        "type": "t_mapping(t_uint256,t_mapping(t_address,t_struct(UserInfo)3895_storage))"
      },
      {
        "astId": 3934,
        "contract": "contracts/UniswapLPStaking.sol:UniswapLPStaking",
        "label": "totalAllocPoint",
        "offset": 0,
        "slot": "108",
        "type": "t_uint256"
      },
      {
        "astId": 3936,
        "contract": "contracts/UniswapLPStaking.sol:UniswapLPStaking",
        "label": "startBlock",
        "offset": 0,
        "slot": "109",
        "type": "t_uint256"
      },
      {
        "astId": 3938,
        "contract": "contracts/UniswapLPStaking.sol:UniswapLPStaking",
        "label": "lpTokenPid0",
        "offset": 0,
        "slot": "110",
        "type": "t_address"
      }
    ],
    "types": {
      "t_address": {
        "encoding": "inplace",
        "label": "address",
        "numberOfBytes": "20"
      },
      "t_array(t_struct(PoolInfo)3905_storage)dyn_storage": {
        "base": "t_struct(PoolInfo)3905_storage",
        "encoding": "dynamic_array",
        "label": "struct UniswapLPStaking.PoolInfo[]",
        "numberOfBytes": "32"
      },
      "t_array(t_uint256)49_storage": {
        "base": "t_uint256",
        "encoding": "inplace",
        "label": "uint256[49]",
        "numberOfBytes": "1568"
      },
      "t_array(t_uint256)50_storage": {
        "base": "t_uint256",
        "encoding": "inplace",
        "label": "uint256[50]",
        "numberOfBytes": "1600"
      },
      "t_bool": {
        "encoding": "inplace",
        "label": "bool",
        "numberOfBytes": "1"
      },
      "t_contract(ArepaToken)3292": {
        "encoding": "inplace",
        "label": "contract ArepaToken",
        "numberOfBytes": "20"
      },
      "t_contract(IERC20Upgradeable)248": {
        "encoding": "inplace",
        "label": "contract IERC20Upgradeable",
        "numberOfBytes": "20"
      },
      "t_mapping(t_address,t_struct(UserInfo)3895_storage)": {
        "encoding": "mapping",
        "key": "t_address",
        "label": "mapping(address => struct UniswapLPStaking.UserInfo)",
        "numberOfBytes": "32",
        "value": "t_struct(UserInfo)3895_storage"
      },
      "t_mapping(t_address,t_uint256)": {
        "encoding": "mapping",
        "key": "t_address",
        "label": "mapping(address => uint256)",
        "numberOfBytes": "32",
        "value": "t_uint256"
      },
      "t_mapping(t_uint256,t_mapping(t_address,t_struct(UserInfo)3895_storage))": {
        "encoding": "mapping",
        "key": "t_uint256",
        "label": "mapping(uint256 => mapping(address => struct UniswapLPStaking.UserInfo))",
        "numberOfBytes": "32",
        "value": "t_mapping(t_address,t_struct(UserInfo)3895_storage)"
      },
      "t_struct(PoolInfo)3905_storage": {
        "encoding": "inplace",
        "label": "struct UniswapLPStaking.PoolInfo",
        "members": [
          {
            "astId": 3898,
            "contract": "contracts/UniswapLPStaking.sol:UniswapLPStaking",
            "label": "lpToken",
            "offset": 0,
            "slot": "0",
            "type": "t_contract(IERC20Upgradeable)248"
          },
          {
            "astId": 3900,
            "contract": "contracts/UniswapLPStaking.sol:UniswapLPStaking",
            "label": "allocPoint",
            "offset": 0,
            "slot": "1",
            "type": "t_uint256"
          },
          {
            "astId": 3902,
            "contract": "contracts/UniswapLPStaking.sol:UniswapLPStaking",
            "label": "lastRewardBlock",
            "offset": 0,
            "slot": "2",
            "type": "t_uint256"
          },
          {
            "astId": 3904,
            "contract": "contracts/UniswapLPStaking.sol:UniswapLPStaking",
            "label": "accArepaPerShare",
            "offset": 0,
            "slot": "3",
            "type": "t_uint256"
          }
        ],
        "numberOfBytes": "128"
      },
      "t_struct(UserInfo)3895_storage": {
        "encoding": "inplace",
        "label": "struct UniswapLPStaking.UserInfo",
        "members": [
          {
            "astId": 3892,
            "contract": "contracts/UniswapLPStaking.sol:UniswapLPStaking",
            "label": "amount",
            "offset": 0,
            "slot": "0",
            "type": "t_uint256"
          },
          {
            "astId": 3894,
            "contract": "contracts/UniswapLPStaking.sol:UniswapLPStaking",
            "label": "rewardDebt",
            "offset": 0,
            "slot": "1",
            "type": "t_uint256"
          }
        ],
        "numberOfBytes": "64"
      },
      "t_uint256": {
        "encoding": "inplace",
        "label": "uint256",
        "numberOfBytes": "32"
      }
    }
  }
}